{"contracts/PharmaChain.sol":{"PharmaChain":{"abi":[{"inputs":[],"stateMutability":"nonpayable","type":"constructor"},{"anonymous":false,"inputs":[{"indexed":false,"internalType":"string","name":"batchId","type":"string"}],"name":"BatchExpired","type":"event"},{"anonymous":false,"inputs":[{"indexed":false,"internalType":"string","name":"batchId","type":"string"},{"indexed":false,"internalType":"string","name":"drugName","type":"string"},{"indexed":false,"internalType":"address","name":"holder","type":"address"}],"name":"BatchRegistered","type":"event"},{"anonymous":false,"inputs":[{"indexed":false,"internalType":"string","name":"batchId","type":"string"},{"indexed":false,"internalType":"string","name":"reason","type":"string"}],"name":"BatchSpoiled","type":"event"},{"anonymous":false,"inputs":[{"indexed":false,"internalType":"string","name":"batchId","type":"string"},{"indexed":false,"internalType":"address","name":"from","type":"address"},{"indexed":false,"internalType":"address","name":"to","type":"address"}],"name":"BatchTransferred","type":"event"},{"anonymous":false,"inputs":[{"indexed":false,"internalType":"string","name":"batchId","type":"string"},{"indexed":false,"internalType":"string","name":"newHash","type":"string"}],"name":"CertificateUpdated","type":"event"},{"inputs":[{"internalType":"string","name":"_batchId","type":"string"}],"name":"autoExpire","outputs":[],"stateMutability":"nonpayable","type":"function"},{"inputs":[{"internalType":"string","name":"","type":"string"}],"name":"batchExists","outputs":[{"internalType":"bool","name":"","type":"bool"}],"stateMutability":"view","type":"function"},{"inputs":[{"internalType":"string","name":"","type":"string"}],"name":"batches","outputs":[{"internalType":"string","name":"batchId","type":"string"},{"internalType":"string","name":"drugName","type":"string"},{"internalType":"string","name":"manufacturer","type":"string"},{"internalType":"string","name":"origin","type":"string"},{"internalType":"uint256","name":"manufactureDate","type":"uint256"},{"internalType":"uint256","name":"expiryDate","type":"uint256"},{"internalType":"bool","name":"expired","type":"bool"},{"internalType":"bool","name":"spoiled","type":"bool"},{"internalType":"string","name":"spoilReason","type":"string"},{"internalType":"string","name":"certificateHash","type":"string"},{"internalType":"address","name":"currentHolder","type":"address"}],"stateMutability":"view","type":"function"},{"inputs":[{"internalType":"string","name":"_batchId","type":"string"}],"name":"checkBatchValidity","outputs":[{"internalType":"bool","name":"","type":"bool"}],"stateMutability":"view","type":"function"},{"inputs":[{"internalType":"string","name":"_batchId","type":"string"}],"name":"getBatchDetails","outputs":[{"internalType":"string","name":"","type":"string"},{"internalType":"string","name":"","type":"string"},{"internalType":"string","name":"","type":"string"},{"internalType":"string","name":"","type":"string"},{"internalType":"uint256","name":"","type":"uint256"},{"internalType":"uint256","name":"","type":"uint256"},{"internalType":"bool","name":"","type":"bool"},{"internalType":"bool","name":"","type":"bool"},{"internalType":"string","name":"","type":"string"},{"internalType":"string","name":"","type":"string"},{"internalType":"address","name":"","type":"address"}],"stateMutability":"view","type":"function"},{"inputs":[{"internalType":"string","name":"_batchId","type":"string"},{"internalType":"string","name":"_reason","type":"string"}],"name":"markAsSpoiled","outputs":[],"stateMutability":"nonpayable","type":"function"},{"inputs":[],"name":"owner","outputs":[{"internalType":"address","name":"","type":"address"}],"stateMutability":"view","type":"function"},{"inputs":[{"internalType":"string","name":"_batchId","type":"string"},{"internalType":"string","name":"_drugName","type":"string"},{"internalType":"string","name":"_manufacturer","type":"string"},{"internalType":"string","name":"_origin","type":"string"},{"internalType":"uint256","name":"_manufactureDate","type":"uint256"},{"internalType":"uint256","name":"_expiryDate","type":"uint256"},{"internalType":"string","name":"_certificateHash","type":"string"}],"name":"registerBatch","outputs":[],"stateMutability":"nonpayable","type":"function"},{"inputs":[{"internalType":"string","name":"_batchId","type":"string"},{"internalType":"address","name":"_to","type":"address"}],"name":"transferBatch","outputs":[],"stateMutability":"nonpayable","type":"function"},{"inputs":[{"internalType":"string","name":"_batchId","type":"string"},{"internalType":"string","name":"_newHash","type":"string"}],"name":"updateCertificateHash","outputs":[],"stateMutability":"nonpayable","type":"function"}],"evm":{"bytecode":{"linkReferences":{},"object":"608060405234801561001057600080fd5b50600280546001600160a01b03191633179055611cca806100326000396000f3fe608060405234801561001057600080fd5b506004361061009e5760003560e01c80639b7993f2116100665780639b7993f21461013c578063b401563b1461014f578063e790398814610162578063f64cc02b146101a0578063f986f931146101b357600080fd5b806314c30a57146100a35780637ef1446a146100b8578063813f14b3146100eb5780638da5cb5b146100fe5780639a1e51ca14610129575b600080fd5b6100b66100b1366004611755565b6101c6565b005b6100cb6100c636600461183a565b610463565b6040516100e29b9a999897969594939291906118c7565b60405180910390f35b6100b66100f936600461198c565b610803565b600254610111906001600160a01b031681565b6040516001600160a01b0390911681526020016100e2565b6100cb61013736600461183a565b61097e565b6100b661014a36600461183a565b610e2f565b6100b661015d3660046119f0565b610f77565b61019061017036600461183a565b805160208183018101805160018252928201919093012091525460ff1681565b60405190151581526020016100e2565b6101906101ae36600461183a565b61114b565b6100b66101c136600461198c565b6115a0565b6001876040516101d69190611a4e565b9081526040519081900360200190205460ff16156102325760405162461bcd60e51b8152602060048201526014602482015273426174636820616c72656164792065786973747360601b60448201526064015b60405180910390fd5b4282116102815760405162461bcd60e51b815260206004820152601d60248201527f4578706972792064617465206d75737420626520696e206675747572650000006044820152606401610229565b604051806101600160405280888152602001878152602001868152602001858152602001848152602001838152602001600015158152602001600015158152602001604051806020016040528060008152508152602001828152602001336001600160a01b03168152506000886040516102fb9190611a4e565b908152604051908190036020019020815181906103189082611aed565b506020820151600182019061032d9082611aed565b50604082015160028201906103429082611aed565b50606082015160038201906103579082611aed565b506080820151600482015560a0820151600582015560c082015160068201805460e085015161ffff1990911692151561ff00191692909217610100921515830217905582015160078201906103ac9082611aed565b5061012082015160088201906103c29082611aed565b506101409190910151600990910180546001600160a01b0319166001600160a01b039092169190911790556040516001908190610400908a90611a4e565b908152604051908190036020018120805492151560ff19909316929092179091557fe187ef62f610f162883fdada619504c09c0981be2dc09fbc1029e7a09db45a939061045290899089903390611bad565b60405180910390a150505050505050565b805160208183018101805160008252928201919093012091528054819061048990611a6a565b80601f01602080910402602001604051908101604052809291908181526020018280546104b590611a6a565b80156105025780601f106104d757610100808354040283529160200191610502565b820191906000526020600020905b8154815290600101906020018083116104e557829003601f168201915b50505050509080600101805461051790611a6a565b80601f016020809104026020016040519081016040528092919081815260200182805461054390611a6a565b80156105905780601f1061056557610100808354040283529160200191610590565b820191906000526020600020905b81548152906001019060200180831161057357829003601f168201915b5050505050908060020180546105a590611a6a565b80601f01602080910402602001604051908101604052809291908181526020018280546105d190611a6a565b801561061e5780601f106105f35761010080835404028352916020019161061e565b820191906000526020600020905b81548152906001019060200180831161060157829003601f168201915b50505050509080600301805461063390611a6a565b80601f016020809104026020016040519081016040528092919081815260200182805461065f90611a6a565b80156106ac5780601f10610681576101008083540402835291602001916106ac565b820191906000526020600020905b81548152906001019060200180831161068f57829003601f168201915b505050506004830154600584015460068501546007860180549596939592945060ff8083169461010090930416926106e390611a6a565b80601f016020809104026020016040519081016040528092919081815260200182805461070f90611a6a565b801561075c5780601f106107315761010080835404028352916020019161075c565b820191906000526020600020905b81548152906001019060200180831161073f57829003601f168201915b50505050509080600801805461077190611a6a565b80601f016020809104026020016040519081016040528092919081815260200182805461079d90611a6a565b80156107ea5780601f106107bf576101008083540402835291602001916107ea565b820191906000526020600020905b8154815290600101906020018083116107cd57829003601f168201915b505050600990930154919250506001600160a01b03168b565b816001816040516108149190611a4e565b9081526040519081900360200190205460ff166108435760405162461bcd60e51b815260040161022990611beb565b600080846040516108549190611a4e565b90815260405190819003602001902060098101549091506001600160a01b031633146108d25760405162461bcd60e51b815260206004820152602760248201527f4f6e6c792063757272656e7420686f6c6465722063616e206d61726b206173206044820152661cdc1bda5b195960ca1b6064820152608401610229565b600681015460ff161561091f5760405162461bcd60e51b815260206004820152601560248201527410985d18da08185b1c9958591e48195e1c1a5c9959605a1b6044820152606401610229565b60068101805461ff0019166101001790556007810161093e8482611aed565b507f4f0ffb2bad101d73ddbc205250a0441340c9e2a5fffd39a01031a99851308c4a8484604051610970929190611c19565b60405180910390a150505050565b60608060608060008060008060608060008b6001816040516109a09190611a4e565b9081526040519081900360200190205460ff166109cf5760405162461bcd60e51b815260040161022990611beb565b6000808e6040516109e09190611a4e565b908152602001604051809103902060405180610160016040529081600082018054610a0a90611a6a565b80601f0160208091040260200160405190810160405280929190818152602001828054610a3690611a6a565b8015610a835780601f10610a5857610100808354040283529160200191610a83565b820191906000526020600020905b815481529060010190602001808311610a6657829003601f168201915b50505050508152602001600182018054610a9c90611a6a565b80601f0160208091040260200160405190810160405280929190818152602001828054610ac890611a6a565b8015610b155780601f10610aea57610100808354040283529160200191610b15565b820191906000526020600020905b815481529060010190602001808311610af857829003601f168201915b50505050508152602001600282018054610b2e90611a6a565b80601f0160208091040260200160405190810160405280929190818152602001828054610b5a90611a6a565b8015610ba75780601f10610b7c57610100808354040283529160200191610ba7565b820191906000526020600020905b815481529060010190602001808311610b8a57829003601f168201915b50505050508152602001600382018054610bc090611a6a565b80601f0160208091040260200160405190810160405280929190818152602001828054610bec90611a6a565b8015610c395780601f10610c0e57610100808354040283529160200191610c39565b820191906000526020600020905b815481529060010190602001808311610c1c57829003601f168201915b50505091835250506004820154602082015260058201546040820152600682015460ff80821615156060840152610100909104161515608082015260078201805460a090920191610c8990611a6a565b80601f0160208091040260200160405190810160405280929190818152602001828054610cb590611a6a565b8015610d025780601f10610cd757610100808354040283529160200191610d02565b820191906000526020600020905b815481529060010190602001808311610ce557829003601f168201915b50505050508152602001600882018054610d1b90611a6a565b80601f0160208091040260200160405190810160405280929190818152602001828054610d4790611a6a565b8015610d945780601f10610d6957610100808354040283529160200191610d94565b820191906000526020600020905b815481529060010190602001808311610d7757829003601f168201915b505050505081526020016009820160009054906101000a90046001600160a01b03166001600160a01b03166001600160a01b0316815250509050806000015181602001518260400151836060015184608001518560a001518660c001518760e001518861010001518961012001518a61014001519c509c509c509c509c509c509c509c509c509c509c50505091939597999b90929496989a50565b80600181604051610e409190611a4e565b9081526040519081900360200190205460ff16610e6f5760405162461bcd60e51b815260040161022990611beb565b60008083604051610e809190611a4e565b908152604051908190036020019020600681015490915060ff1615610edf5760405162461bcd60e51b815260206004820152601560248201527410985d18da08185b1c9958591e48195e1c1a5c9959605a1b6044820152606401610229565b8060050154421015610f2b5760405162461bcd60e51b815260206004820152601560248201527410985d18da081b9bdd081e595d08195e1c1a5c9959605a1b6044820152606401610229565b60068101805460ff191660011790556040517f4d162764164a3ad7275221da892fcbdec29cfe24c39f4e03b62771a84aae581e90610f6a908590611c47565b60405180910390a1505050565b81600181604051610f889190611a4e565b9081526040519081900360200190205460ff16610fb75760405162461bcd60e51b815260040161022990611beb565b60008084604051610fc89190611a4e565b90815260405190819003602001902060098101549091506001600160a01b031633146110365760405162461bcd60e51b815260206004820181905260248201527f4f6e6c792063757272656e7420686f6c6465722063616e207472616e736665726044820152606401610229565b600681015460ff161561108b5760405162461bcd60e51b815260206004820152601d60248201527f43616e6e6f74207472616e7366657220657870697265642062617463680000006044820152606401610229565b6006810154610100900460ff16156110e55760405162461bcd60e51b815260206004820152601d60248201527f43616e6e6f74207472616e736665722073706f696c65642062617463680000006044820152606401610229565b6009810180546001600160a01b038581166001600160a01b03198316179092556040519116907fa8b047db3c9b378a978a9cc59c0f75a2671f935a140d6799f8f56104f0ec6dd69061113c90879084908890611c61565b60405180910390a15050505050565b60008160018160405161115e9190611a4e565b9081526040519081900360200190205460ff1661118d5760405162461bcd60e51b815260040161022990611beb565b6000808460405161119e9190611a4e565b9081526020016040518091039020604051806101600160405290816000820180546111c890611a6a565b80601f01602080910402602001604051908101604052809291908181526020018280546111f490611a6a565b80156112415780601f1061121657610100808354040283529160200191611241565b820191906000526020600020905b81548152906001019060200180831161122457829003601f168201915b5050505050815260200160018201805461125a90611a6a565b80601f016020809104026020016040519081016040528092919081815260200182805461128690611a6a565b80156112d35780601f106112a8576101008083540402835291602001916112d3565b820191906000526020600020905b8154815290600101906020018083116112b657829003601f168201915b505050505081526020016002820180546112ec90611a6a565b80601f016020809104026020016040519081016040528092919081815260200182805461131890611a6a565b80156113655780601f1061133a57610100808354040283529160200191611365565b820191906000526020600020905b81548152906001019060200180831161134857829003601f168201915b5050505050815260200160038201805461137e90611a6a565b80601f01602080910402602001604051908101604052809291908181526020018280546113aa90611a6a565b80156113f75780601f106113cc576101008083540402835291602001916113f7565b820191906000526020600020905b8154815290600101906020018083116113da57829003601f168201915b50505091835250506004820154602082015260058201546040820152600682015460ff80821615156060840152610100909104161515608082015260078201805460a09092019161144790611a6a565b80601f016020809104026020016040519081016040528092919081815260200182805461147390611a6a565b80156114c05780601f10611495576101008083540402835291602001916114c0565b820191906000526020600020905b8154815290600101906020018083116114a357829003601f168201915b505050505081526020016008820180546114d990611a6a565b80601f016020809104026020016040519081016040528092919081815260200182805461150590611a6a565b80156115525780601f1061152757610100808354040283529160200191611552565b820191906000526020600020905b81548152906001019060200180831161153557829003601f168201915b5050509183525050600991909101546001600160a01b031660209091015260c081015190915015801561158757508060e00151155b801561159657508060a0015142105b9250505b50919050565b816001816040516115b19190611a4e565b9081526040519081900360200190205460ff166115e05760405162461bcd60e51b815260040161022990611beb565b600080846040516115f19190611a4e565b90815260405190819003602001902060098101549091506001600160a01b031633146116725760405162461bcd60e51b815260206004820152602a60248201527f4f6e6c792063757272656e7420686f6c6465722063616e2075706461746520636044820152696572746966696361746560b01b6064820152608401610229565b600881016116808482611aed565b507f29649c862eeebc82c2468fad07dfafca561ae42a8130ca7f8b9dd32e668a63478484604051610970929190611c19565b634e487b7160e01b600052604160045260246000fd5b600082601f8301126116d957600080fd5b813567ffffffffffffffff808211156116f4576116f46116b2565b604051601f8301601f19908116603f0116810190828211818310171561171c5761171c6116b2565b8160405283815286602085880101111561173557600080fd5b836020870160208301376000602085830101528094505050505092915050565b600080600080600080600060e0888a03121561177057600080fd5b873567ffffffffffffffff8082111561178857600080fd5b6117948b838c016116c8565b985060208a01359150808211156117aa57600080fd5b6117b68b838c016116c8565b975060408a01359150808211156117cc57600080fd5b6117d88b838c016116c8565b965060608a01359150808211156117ee57600080fd5b6117fa8b838c016116c8565b955060808a0135945060a08a0135935060c08a013591508082111561181e57600080fd5b5061182b8a828b016116c8565b91505092959891949750929550565b60006020828403121561184c57600080fd5b813567ffffffffffffffff81111561186357600080fd5b61186f848285016116c8565b949350505050565b60005b8381101561189257818101518382015260200161187a565b50506000910152565b600081518084526118b3816020860160208601611877565b601f01601f19169290920160200192915050565b60006101608083526118db8184018f61189b565b905082810360208401526118ef818e61189b565b90508281036040840152611903818d61189b565b90508281036060840152611917818c61189b565b90508960808401528860a084015287151560c084015261193b60e084018815159052565b82810361010084015261194e818761189b565b9050828103610120840152611963818661189b565b91505061197c6101408301846001600160a01b03169052565b9c9b505050505050505050505050565b6000806040838503121561199f57600080fd5b823567ffffffffffffffff808211156119b757600080fd5b6119c3868387016116c8565b935060208501359150808211156119d957600080fd5b506119e6858286016116c8565b9150509250929050565b60008060408385031215611a0357600080fd5b823567ffffffffffffffff811115611a1a57600080fd5b611a26858286016116c8565b92505060208301356001600160a01b0381168114611a4357600080fd5b809150509250929050565b60008251611a60818460208701611877565b9190910192915050565b600181811c90821680611a7e57607f821691505b60208210810361159a57634e487b7160e01b600052602260045260246000fd5b601f821115611ae857600081815260208120601f850160051c81016020861015611ac55750805b601f850160051c820191505b81811015611ae457828155600101611ad1565b5050505b505050565b815167ffffffffffffffff811115611b0757611b076116b2565b611b1b81611b158454611a6a565b84611a9e565b602080601f831160018114611b505760008415611b385750858301515b600019600386901b1c1916600185901b178555611ae4565b600085815260208120601f198616915b82811015611b7f57888601518255948401946001909101908401611b60565b5085821015611b9d5787850151600019600388901b60f8161c191681555b5050505050600190811b01905550565b606081526000611bc0606083018661189b565b8281036020840152611bd2818661189b565b91505060018060a01b0383166040830152949350505050565b60208082526014908201527310985d18da08191bd95cc81b9bdd08195e1a5cdd60621b604082015260600190565b604081526000611c2c604083018561189b565b8281036020840152611c3e818561189b565b95945050505050565b602081526000611c5a602083018461189b565b9392505050565b606081526000611c74606083018661189b565b6001600160a01b039485166020840152929093166040909101529291505056fea2646970667358221220da89d736573eff9a5deaea1a5ac59c17742a1b22b63a2888e2b6291bdc6649cd64736f6c63430008130033","opcodes":"PUSH1 0x80 PUSH1 0x40 MSTORE CALLVALUE DUP1 ISZERO PUSH2 0x10 JUMPI PUSH1 0x0 DUP1 REVERT JUMPDEST POP PUSH1 0x2 DUP1 SLOAD PUSH1 0x1 PUSH1 0x1 PUSH1 0xA0 SHL SUB NOT AND CALLER OR SWAP1 SSTORE PUSH2 0x1CCA DUP1 PUSH2 0x32 PUSH1 0x0 CODECOPY PUSH1 0x0 RETURN INVALID PUSH1 0x80 PUSH1 0x40 MSTORE CALLVALUE DUP1 ISZERO PUSH2 0x10 JUMPI PUSH1 0x0 DUP1 REVERT JUMPDEST POP PUSH1 0x4 CALLDATASIZE LT PUSH2 0x9E JUMPI PUSH1 0x0 CALLDATALOAD PUSH1 0xE0 SHR DUP1 PUSH4 0x9B7993F2 GT PUSH2 0x66 JUMPI DUP1 PUSH4 0x9B7993F2 EQ PUSH2 0x13C JUMPI DUP1 PUSH4 0xB401563B EQ PUSH2 0x14F JUMPI DUP1 PUSH4 0xE7903988 EQ PUSH2 0x162 JUMPI DUP1 PUSH4 0xF64CC02B EQ PUSH2 0x1A0 JUMPI DUP1 PUSH4 0xF986F931 EQ PUSH2 0x1B3 JUMPI PUSH1 0x0 DUP1 REVERT JUMPDEST DUP1 PUSH4 0x14C30A57 EQ PUSH2 0xA3 JUMPI DUP1 PUSH4 0x7EF1446A EQ PUSH2 0xB8 JUMPI DUP1 PUSH4 0x813F14B3 EQ PUSH2 0xEB JUMPI DUP1 PUSH4 0x8DA5CB5B EQ PUSH2 0xFE JUMPI DUP1 PUSH4 0x9A1E51CA EQ PUSH2 0x129 JUMPI JUMPDEST PUSH1 0x0 DUP1 REVERT JUMPDEST PUSH2 0xB6 PUSH2 0xB1 CALLDATASIZE PUSH1 0x4 PUSH2 0x1755 JUMP JUMPDEST PUSH2 0x1C6 JUMP JUMPDEST STOP JUMPDEST PUSH2 0xCB PUSH2 0xC6 CALLDATASIZE PUSH1 0x4 PUSH2 0x183A JUMP JUMPDEST PUSH2 0x463 JUMP JUMPDEST PUSH1 0x40 MLOAD PUSH2 0xE2 SWAP12 SWAP11 SWAP10 SWAP9 SWAP8 SWAP7 SWAP6 SWAP5 SWAP4 SWAP3 SWAP2 SWAP1 PUSH2 0x18C7 JUMP JUMPDEST PUSH1 0x40 MLOAD DUP1 SWAP2 SUB SWAP1 RETURN JUMPDEST PUSH2 0xB6 PUSH2 0xF9 CALLDATASIZE PUSH1 0x4 PUSH2 0x198C JUMP JUMPDEST PUSH2 0x803 JUMP JUMPDEST PUSH1 0x2 SLOAD PUSH2 0x111 SWAP1 PUSH1 0x1 PUSH1 0x1 PUSH1 0xA0 SHL SUB AND DUP2 JUMP JUMPDEST PUSH1 0x40 MLOAD PUSH1 0x1 PUSH1 0x1 PUSH1 0xA0 SHL SUB SWAP1 SWAP2 AND DUP2 MSTORE PUSH1 0x20 ADD PUSH2 0xE2 JUMP JUMPDEST PUSH2 0xCB PUSH2 0x137 CALLDATASIZE PUSH1 0x4 PUSH2 0x183A JUMP JUMPDEST PUSH2 0x97E JUMP JUMPDEST PUSH2 0xB6 PUSH2 0x14A CALLDATASIZE PUSH1 0x4 PUSH2 0x183A JUMP JUMPDEST PUSH2 0xE2F JUMP JUMPDEST PUSH2 0xB6 PUSH2 0x15D CALLDATASIZE PUSH1 0x4 PUSH2 0x19F0 JUMP JUMPDEST PUSH2 0xF77 JUMP JUMPDEST PUSH2 0x190 PUSH2 0x170 CALLDATASIZE PUSH1 0x4 PUSH2 0x183A JUMP JUMPDEST DUP1 MLOAD PUSH1 0x20 DUP2 DUP4 ADD DUP2 ADD DUP1 MLOAD PUSH1 0x1 DUP3 MSTORE SWAP3 DUP3 ADD SWAP2 SWAP1 SWAP4 ADD KECCAK256 SWAP2 MSTORE SLOAD PUSH1 0xFF AND DUP2 JUMP JUMPDEST PUSH1 0x40 MLOAD SWAP1 ISZERO ISZERO DUP2 MSTORE PUSH1 0x20 ADD PUSH2 0xE2 JUMP JUMPDEST PUSH2 0x190 PUSH2 0x1AE CALLDATASIZE PUSH1 0x4 PUSH2 0x183A JUMP JUMPDEST PUSH2 0x114B JUMP JUMPDEST PUSH2 0xB6 PUSH2 0x1C1 CALLDATASIZE PUSH1 0x4 PUSH2 0x198C JUMP JUMPDEST PUSH2 0x15A0 JUMP JUMPDEST PUSH1 0x1 DUP8 PUSH1 0x40 MLOAD PUSH2 0x1D6 SWAP2 SWAP1 PUSH2 0x1A4E JUMP JUMPDEST SWAP1 DUP2 MSTORE PUSH1 0x40 MLOAD SWAP1 DUP2 SWAP1 SUB PUSH1 0x20 ADD SWAP1 KECCAK256 SLOAD PUSH1 0xFF AND ISZERO PUSH2 0x232 JUMPI PUSH1 0x40 MLOAD PUSH3 0x461BCD PUSH1 0xE5 SHL DUP2 MSTORE PUSH1 0x20 PUSH1 0x4 DUP3 ADD MSTORE PUSH1 0x14 PUSH1 0x24 DUP3 ADD MSTORE PUSH20 0x426174636820616C726561647920657869737473 PUSH1 0x60 SHL PUSH1 0x44 DUP3 ADD MSTORE PUSH1 0x64 ADD JUMPDEST PUSH1 0x40 MLOAD DUP1 SWAP2 SUB SWAP1 REVERT JUMPDEST TIMESTAMP DUP3 GT PUSH2 0x281 JUMPI PUSH1 0x40 MLOAD PUSH3 0x461BCD PUSH1 0xE5 SHL DUP2 MSTORE PUSH1 0x20 PUSH1 0x4 DUP3 ADD MSTORE PUSH1 0x1D PUSH1 0x24 DUP3 ADD MSTORE PUSH32 0x4578706972792064617465206D75737420626520696E20667574757265000000 PUSH1 0x44 DUP3 ADD MSTORE PUSH1 0x64 ADD PUSH2 0x229 JUMP JUMPDEST PUSH1 0x40 MLOAD DUP1 PUSH2 0x160 ADD PUSH1 0x40 MSTORE DUP1 DUP9 DUP2 MSTORE PUSH1 0x20 ADD DUP8 DUP2 MSTORE PUSH1 0x20 ADD DUP7 DUP2 MSTORE PUSH1 0x20 ADD DUP6 DUP2 MSTORE PUSH1 0x20 ADD DUP5 DUP2 MSTORE PUSH1 0x20 ADD DUP4 DUP2 MSTORE PUSH1 0x20 ADD PUSH1 0x0 ISZERO ISZERO DUP2 MSTORE PUSH1 0x20 ADD PUSH1 0x0 ISZERO ISZERO DUP2 MSTORE PUSH1 0x20 ADD PUSH1 0x40 MLOAD DUP1 PUSH1 0x20 ADD PUSH1 0x40 MSTORE DUP1 PUSH1 0x0 DUP2 MSTORE POP DUP2 MSTORE PUSH1 0x20 ADD DUP3 DUP2 MSTORE PUSH1 0x20 ADD CALLER PUSH1 0x1 PUSH1 0x1 PUSH1 0xA0 SHL SUB AND DUP2 MSTORE POP PUSH1 0x0 DUP9 PUSH1 0x40 MLOAD PUSH2 0x2FB SWAP2 SWAP1 PUSH2 0x1A4E JUMP JUMPDEST SWAP1 DUP2 MSTORE PUSH1 0x40 MLOAD SWAP1 DUP2 SWAP1 SUB PUSH1 0x20 ADD SWAP1 KECCAK256 DUP2 MLOAD DUP2 SWAP1 PUSH2 0x318 SWAP1 DUP3 PUSH2 0x1AED JUMP JUMPDEST POP PUSH1 0x20 DUP3 ADD MLOAD PUSH1 0x1 DUP3 ADD SWAP1 PUSH2 0x32D SWAP1 DUP3 PUSH2 0x1AED JUMP JUMPDEST POP PUSH1 0x40 DUP3 ADD MLOAD PUSH1 0x2 DUP3 ADD SWAP1 PUSH2 0x342 SWAP1 DUP3 PUSH2 0x1AED JUMP JUMPDEST POP PUSH1 0x60 DUP3 ADD MLOAD PUSH1 0x3 DUP3 ADD SWAP1 PUSH2 0x357 SWAP1 DUP3 PUSH2 0x1AED JUMP JUMPDEST POP PUSH1 0x80 DUP3 ADD MLOAD PUSH1 0x4 DUP3 ADD SSTORE PUSH1 0xA0 DUP3 ADD MLOAD PUSH1 0x5 DUP3 ADD SSTORE PUSH1 0xC0 DUP3 ADD MLOAD PUSH1 0x6 DUP3 ADD DUP1 SLOAD PUSH1 0xE0 DUP6 ADD MLOAD PUSH2 0xFFFF NOT SWAP1 SWAP2 AND SWAP3 ISZERO ISZERO PUSH2 0xFF00 NOT AND SWAP3 SWAP1 SWAP3 OR PUSH2 0x100 SWAP3 ISZERO ISZERO DUP4 MUL OR SWAP1 SSTORE DUP3 ADD MLOAD PUSH1 0x7 DUP3 ADD SWAP1 PUSH2 0x3AC SWAP1 DUP3 PUSH2 0x1AED JUMP JUMPDEST POP PUSH2 0x120 DUP3 ADD MLOAD PUSH1 0x8 DUP3 ADD SWAP1 PUSH2 0x3C2 SWAP1 DUP3 PUSH2 0x1AED JUMP JUMPDEST POP PUSH2 0x140 SWAP2 SWAP1 SWAP2 ADD MLOAD PUSH1 0x9 SWAP1 SWAP2 ADD DUP1 SLOAD PUSH1 0x1 PUSH1 0x1 PUSH1 0xA0 SHL SUB NOT AND PUSH1 0x1 PUSH1 0x1 PUSH1 0xA0 SHL SUB SWAP1 SWAP3 AND SWAP2 SWAP1 SWAP2 OR SWAP1 SSTORE PUSH1 0x40 MLOAD PUSH1 0x1 SWAP1 DUP2 SWAP1 PUSH2 0x400 SWAP1 DUP11 SWAP1 PUSH2 0x1A4E JUMP JUMPDEST SWAP1 DUP2 MSTORE PUSH1 0x40 MLOAD SWAP1 DUP2 SWAP1 SUB PUSH1 0x20 ADD DUP2 KECCAK256 DUP1 SLOAD SWAP3 ISZERO ISZERO PUSH1 0xFF NOT SWAP1 SWAP4 AND SWAP3 SWAP1 SWAP3 OR SWAP1 SWAP2 SSTORE PUSH32 0xE187EF62F610F162883FDADA619504C09C0981BE2DC09FBC1029E7A09DB45A93 SWAP1 PUSH2 0x452 SWAP1 DUP10 SWAP1 DUP10 SWAP1 CALLER SWAP1 PUSH2 0x1BAD JUMP JUMPDEST PUSH1 0x40 MLOAD DUP1 SWAP2 SUB SWAP1 LOG1 POP POP POP POP POP POP POP JUMP JUMPDEST DUP1 MLOAD PUSH1 0x20 DUP2 DUP4 ADD DUP2 ADD DUP1 MLOAD PUSH1 0x0 DUP3 MSTORE SWAP3 DUP3 ADD SWAP2 SWAP1 SWAP4 ADD KECCAK256 SWAP2 MSTORE DUP1 SLOAD DUP2 SWAP1 PUSH2 0x489 SWAP1 PUSH2 0x1A6A JUMP JUMPDEST DUP1 PUSH1 0x1F ADD PUSH1 0x20 DUP1 SWAP2 DIV MUL PUSH1 0x20 ADD PUSH1 0x40 MLOAD SWAP1 DUP2 ADD PUSH1 0x40 MSTORE DUP1 SWAP3 SWAP2 SWAP1 DUP2 DUP2 MSTORE PUSH1 0x20 ADD DUP3 DUP1 SLOAD PUSH2 0x4B5 SWAP1 PUSH2 0x1A6A JUMP JUMPDEST DUP1 ISZERO PUSH2 0x502 JUMPI DUP1 PUSH1 0x1F LT PUSH2 0x4D7 JUMPI PUSH2 0x100 DUP1 DUP4 SLOAD DIV MUL DUP4 MSTORE SWAP2 PUSH1 0x20 ADD SWAP2 PUSH2 0x502 JUMP JUMPDEST DUP3 ADD SWAP2 SWAP1 PUSH1 0x0 MSTORE PUSH1 0x20 PUSH1 0x0 KECCAK256 SWAP1 JUMPDEST DUP2 SLOAD DUP2 MSTORE SWAP1 PUSH1 0x1 ADD SWAP1 PUSH1 0x20 ADD DUP1 DUP4 GT PUSH2 0x4E5 JUMPI DUP3 SWAP1 SUB PUSH1 0x1F AND DUP3 ADD SWAP2 JUMPDEST POP POP POP POP POP SWAP1 DUP1 PUSH1 0x1 ADD DUP1 SLOAD PUSH2 0x517 SWAP1 PUSH2 0x1A6A JUMP JUMPDEST DUP1 PUSH1 0x1F ADD PUSH1 0x20 DUP1 SWAP2 DIV MUL PUSH1 0x20 ADD PUSH1 0x40 MLOAD SWAP1 DUP2 ADD PUSH1 0x40 MSTORE DUP1 SWAP3 SWAP2 SWAP1 DUP2 DUP2 MSTORE PUSH1 0x20 ADD DUP3 DUP1 SLOAD PUSH2 0x543 SWAP1 PUSH2 0x1A6A JUMP JUMPDEST DUP1 ISZERO PUSH2 0x590 JUMPI DUP1 PUSH1 0x1F LT PUSH2 0x565 JUMPI PUSH2 0x100 DUP1 DUP4 SLOAD DIV MUL DUP4 MSTORE SWAP2 PUSH1 0x20 ADD SWAP2 PUSH2 0x590 JUMP JUMPDEST DUP3 ADD SWAP2 SWAP1 PUSH1 0x0 MSTORE PUSH1 0x20 PUSH1 0x0 KECCAK256 SWAP1 JUMPDEST DUP2 SLOAD DUP2 MSTORE SWAP1 PUSH1 0x1 ADD SWAP1 PUSH1 0x20 ADD DUP1 DUP4 GT PUSH2 0x573 JUMPI DUP3 SWAP1 SUB PUSH1 0x1F AND DUP3 ADD SWAP2 JUMPDEST POP POP POP POP POP SWAP1 DUP1 PUSH1 0x2 ADD DUP1 SLOAD PUSH2 0x5A5 SWAP1 PUSH2 0x1A6A JUMP JUMPDEST DUP1 PUSH1 0x1F ADD PUSH1 0x20 DUP1 SWAP2 DIV MUL PUSH1 0x20 ADD PUSH1 0x40 MLOAD SWAP1 DUP2 ADD PUSH1 0x40 MSTORE DUP1 SWAP3 SWAP2 SWAP1 DUP2 DUP2 MSTORE PUSH1 0x20 ADD DUP3 DUP1 SLOAD PUSH2 0x5D1 SWAP1 PUSH2 0x1A6A JUMP JUMPDEST DUP1 ISZERO PUSH2 0x61E JUMPI DUP1 PUSH1 0x1F LT PUSH2 0x5F3 JUMPI PUSH2 0x100 DUP1 DUP4 SLOAD DIV MUL DUP4 MSTORE SWAP2 PUSH1 0x20 ADD SWAP2 PUSH2 0x61E JUMP JUMPDEST DUP3 ADD SWAP2 SWAP1 PUSH1 0x0 MSTORE PUSH1 0x20 PUSH1 0x0 KECCAK256 SWAP1 JUMPDEST DUP2 SLOAD DUP2 MSTORE SWAP1 PUSH1 0x1 ADD SWAP1 PUSH1 0x20 ADD DUP1 DUP4 GT PUSH2 0x601 JUMPI DUP3 SWAP1 SUB PUSH1 0x1F AND DUP3 ADD SWAP2 JUMPDEST POP POP POP POP POP SWAP1 DUP1 PUSH1 0x3 ADD DUP1 SLOAD PUSH2 0x633 SWAP1 PUSH2 0x1A6A JUMP JUMPDEST DUP1 PUSH1 0x1F ADD PUSH1 0x20 DUP1 SWAP2 DIV MUL PUSH1 0x20 ADD PUSH1 0x40 MLOAD SWAP1 DUP2 ADD PUSH1 0x40 MSTORE DUP1 SWAP3 SWAP2 SWAP1 DUP2 DUP2 MSTORE PUSH1 0x20 ADD DUP3 DUP1 SLOAD PUSH2 0x65F SWAP1 PUSH2 0x1A6A JUMP JUMPDEST DUP1 ISZERO PUSH2 0x6AC JUMPI DUP1 PUSH1 0x1F LT PUSH2 0x681 JUMPI PUSH2 0x100 DUP1 DUP4 SLOAD DIV MUL DUP4 MSTORE SWAP2 PUSH1 0x20 ADD SWAP2 PUSH2 0x6AC JUMP JUMPDEST DUP3 ADD SWAP2 SWAP1 PUSH1 0x0 MSTORE PUSH1 0x20 PUSH1 0x0 KECCAK256 SWAP1 JUMPDEST DUP2 SLOAD DUP2 MSTORE SWAP1 PUSH1 0x1 ADD SWAP1 PUSH1 0x20 ADD DUP1 DUP4 GT PUSH2 0x68F JUMPI DUP3 SWAP1 SUB PUSH1 0x1F AND DUP3 ADD SWAP2 JUMPDEST POP POP POP POP PUSH1 0x4 DUP4 ADD SLOAD PUSH1 0x5 DUP5 ADD SLOAD PUSH1 0x6 DUP6 ADD SLOAD PUSH1 0x7 DUP7 ADD DUP1 SLOAD SWAP6 SWAP7 SWAP4 SWAP6 SWAP3 SWAP5 POP PUSH1 0xFF DUP1 DUP4 AND SWAP5 PUSH2 0x100 SWAP1 SWAP4 DIV AND SWAP3 PUSH2 0x6E3 SWAP1 PUSH2 0x1A6A JUMP JUMPDEST DUP1 PUSH1 0x1F ADD PUSH1 0x20 DUP1 SWAP2 DIV MUL PUSH1 0x20 ADD PUSH1 0x40 MLOAD SWAP1 DUP2 ADD PUSH1 0x40 MSTORE DUP1 SWAP3 SWAP2 SWAP1 DUP2 DUP2 MSTORE PUSH1 0x20 ADD DUP3 DUP1 SLOAD PUSH2 0x70F SWAP1 PUSH2 0x1A6A JUMP JUMPDEST DUP1 ISZERO PUSH2 0x75C JUMPI DUP1 PUSH1 0x1F LT PUSH2 0x731 JUMPI PUSH2 0x100 DUP1 DUP4 SLOAD DIV MUL DUP4 MSTORE SWAP2 PUSH1 0x20 ADD SWAP2 PUSH2 0x75C JUMP JUMPDEST DUP3 ADD SWAP2 SWAP1 PUSH1 0x0 MSTORE PUSH1 0x20 PUSH1 0x0 KECCAK256 SWAP1 JUMPDEST DUP2 SLOAD DUP2 MSTORE SWAP1 PUSH1 0x1 ADD SWAP1 PUSH1 0x20 ADD DUP1 DUP4 GT PUSH2 0x73F JUMPI DUP3 SWAP1 SUB PUSH1 0x1F AND DUP3 ADD SWAP2 JUMPDEST POP POP POP POP POP SWAP1 DUP1 PUSH1 0x8 ADD DUP1 SLOAD PUSH2 0x771 SWAP1 PUSH2 0x1A6A JUMP JUMPDEST DUP1 PUSH1 0x1F ADD PUSH1 0x20 DUP1 SWAP2 DIV MUL PUSH1 0x20 ADD PUSH1 0x40 MLOAD SWAP1 DUP2 ADD PUSH1 0x40 MSTORE DUP1 SWAP3 SWAP2 SWAP1 DUP2 DUP2 MSTORE PUSH1 0x20 ADD DUP3 DUP1 SLOAD PUSH2 0x79D SWAP1 PUSH2 0x1A6A JUMP JUMPDEST DUP1 ISZERO PUSH2 0x7EA JUMPI DUP1 PUSH1 0x1F LT PUSH2 0x7BF JUMPI PUSH2 0x100 DUP1 DUP4 SLOAD DIV MUL DUP4 MSTORE SWAP2 PUSH1 0x20 ADD SWAP2 PUSH2 0x7EA JUMP JUMPDEST DUP3 ADD SWAP2 SWAP1 PUSH1 0x0 MSTORE PUSH1 0x20 PUSH1 0x0 KECCAK256 SWAP1 JUMPDEST DUP2 SLOAD DUP2 MSTORE SWAP1 PUSH1 0x1 ADD SWAP1 PUSH1 0x20 ADD DUP1 DUP4 GT PUSH2 0x7CD JUMPI DUP3 SWAP1 SUB PUSH1 0x1F AND DUP3 ADD SWAP2 JUMPDEST POP POP POP PUSH1 0x9 SWAP1 SWAP4 ADD SLOAD SWAP2 SWAP3 POP POP PUSH1 0x1 PUSH1 0x1 PUSH1 0xA0 SHL SUB AND DUP12 JUMP JUMPDEST DUP2 PUSH1 0x1 DUP2 PUSH1 0x40 MLOAD PUSH2 0x814 SWAP2 SWAP1 PUSH2 0x1A4E JUMP JUMPDEST SWAP1 DUP2 MSTORE PUSH1 0x40 MLOAD SWAP1 DUP2 SWAP1 SUB PUSH1 0x20 ADD SWAP1 KECCAK256 SLOAD PUSH1 0xFF AND PUSH2 0x843 JUMPI PUSH1 0x40 MLOAD PUSH3 0x461BCD PUSH1 0xE5 SHL DUP2 MSTORE PUSH1 0x4 ADD PUSH2 0x229 SWAP1 PUSH2 0x1BEB JUMP JUMPDEST PUSH1 0x0 DUP1 DUP5 PUSH1 0x40 MLOAD PUSH2 0x854 SWAP2 SWAP1 PUSH2 0x1A4E JUMP JUMPDEST SWAP1 DUP2 MSTORE PUSH1 0x40 MLOAD SWAP1 DUP2 SWAP1 SUB PUSH1 0x20 ADD SWAP1 KECCAK256 PUSH1 0x9 DUP2 ADD SLOAD SWAP1 SWAP2 POP PUSH1 0x1 PUSH1 0x1 PUSH1 0xA0 SHL SUB AND CALLER EQ PUSH2 0x8D2 JUMPI PUSH1 0x40 MLOAD PUSH3 0x461BCD PUSH1 0xE5 SHL DUP2 MSTORE PUSH1 0x20 PUSH1 0x4 DUP3 ADD MSTORE PUSH1 0x27 PUSH1 0x24 DUP3 ADD MSTORE PUSH32 0x4F6E6C792063757272656E7420686F6C6465722063616E206D61726B20617320 PUSH1 0x44 DUP3 ADD MSTORE PUSH7 0x1CDC1BDA5B1959 PUSH1 0xCA SHL PUSH1 0x64 DUP3 ADD MSTORE PUSH1 0x84 ADD PUSH2 0x229 JUMP JUMPDEST PUSH1 0x6 DUP2 ADD SLOAD PUSH1 0xFF AND ISZERO PUSH2 0x91F JUMPI PUSH1 0x40 MLOAD PUSH3 0x461BCD PUSH1 0xE5 SHL DUP2 MSTORE PUSH1 0x20 PUSH1 0x4 DUP3 ADD MSTORE PUSH1 0x15 PUSH1 0x24 DUP3 ADD MSTORE PUSH21 0x10985D18DA08185B1C9958591E48195E1C1A5C9959 PUSH1 0x5A SHL PUSH1 0x44 DUP3 ADD MSTORE PUSH1 0x64 ADD PUSH2 0x229 JUMP JUMPDEST PUSH1 0x6 DUP2 ADD DUP1 SLOAD PUSH2 0xFF00 NOT AND PUSH2 0x100 OR SWAP1 SSTORE PUSH1 0x7 DUP2 ADD PUSH2 0x93E DUP5 DUP3 PUSH2 0x1AED JUMP JUMPDEST POP PUSH32 0x4F0FFB2BAD101D73DDBC205250A0441340C9E2A5FFFD39A01031A99851308C4A DUP5 DUP5 PUSH1 0x40 MLOAD PUSH2 0x970 SWAP3 SWAP2 SWAP1 PUSH2 0x1C19 JUMP JUMPDEST PUSH1 0x40 MLOAD DUP1 SWAP2 SUB SWAP1 LOG1 POP POP POP POP JUMP JUMPDEST PUSH1 0x60 DUP1 PUSH1 0x60 DUP1 PUSH1 0x0 DUP1 PUSH1 0x0 DUP1 PUSH1 0x60 DUP1 PUSH1 0x0 DUP12 PUSH1 0x1 DUP2 PUSH1 0x40 MLOAD PUSH2 0x9A0 SWAP2 SWAP1 PUSH2 0x1A4E JUMP JUMPDEST SWAP1 DUP2 MSTORE PUSH1 0x40 MLOAD SWAP1 DUP2 SWAP1 SUB PUSH1 0x20 ADD SWAP1 KECCAK256 SLOAD PUSH1 0xFF AND PUSH2 0x9CF JUMPI PUSH1 0x40 MLOAD PUSH3 0x461BCD PUSH1 0xE5 SHL DUP2 MSTORE PUSH1 0x4 ADD PUSH2 0x229 SWAP1 PUSH2 0x1BEB JUMP JUMPDEST PUSH1 0x0 DUP1 DUP15 PUSH1 0x40 MLOAD PUSH2 0x9E0 SWAP2 SWAP1 PUSH2 0x1A4E JUMP JUMPDEST SWAP1 DUP2 MSTORE PUSH1 0x20 ADD PUSH1 0x40 MLOAD DUP1 SWAP2 SUB SWAP1 KECCAK256 PUSH1 0x40 MLOAD DUP1 PUSH2 0x160 ADD PUSH1 0x40 MSTORE SWAP1 DUP2 PUSH1 0x0 DUP3 ADD DUP1 SLOAD PUSH2 0xA0A SWAP1 PUSH2 0x1A6A JUMP JUMPDEST DUP1 PUSH1 0x1F ADD PUSH1 0x20 DUP1 SWAP2 DIV MUL PUSH1 0x20 ADD PUSH1 0x40 MLOAD SWAP1 DUP2 ADD PUSH1 0x40 MSTORE DUP1 SWAP3 SWAP2 SWAP1 DUP2 DUP2 MSTORE PUSH1 0x20 ADD DUP3 DUP1 SLOAD PUSH2 0xA36 SWAP1 PUSH2 0x1A6A JUMP JUMPDEST DUP1 ISZERO PUSH2 0xA83 JUMPI DUP1 PUSH1 0x1F LT PUSH2 0xA58 JUMPI PUSH2 0x100 DUP1 DUP4 SLOAD DIV MUL DUP4 MSTORE SWAP2 PUSH1 0x20 ADD SWAP2 PUSH2 0xA83 JUMP JUMPDEST DUP3 ADD SWAP2 SWAP1 PUSH1 0x0 MSTORE PUSH1 0x20 PUSH1 0x0 KECCAK256 SWAP1 JUMPDEST DUP2 SLOAD DUP2 MSTORE SWAP1 PUSH1 0x1 ADD SWAP1 PUSH1 0x20 ADD DUP1 DUP4 GT PUSH2 0xA66 JUMPI DUP3 SWAP1 SUB PUSH1 0x1F AND DUP3 ADD SWAP2 JUMPDEST POP POP POP POP POP DUP2 MSTORE PUSH1 0x20 ADD PUSH1 0x1 DUP3 ADD DUP1 SLOAD PUSH2 0xA9C SWAP1 PUSH2 0x1A6A JUMP JUMPDEST DUP1 PUSH1 0x1F ADD PUSH1 0x20 DUP1 SWAP2 DIV MUL PUSH1 0x20 ADD PUSH1 0x40 MLOAD SWAP1 DUP2 ADD PUSH1 0x40 MSTORE DUP1 SWAP3 SWAP2 SWAP1 DUP2 DUP2 MSTORE PUSH1 0x20 ADD DUP3 DUP1 SLOAD PUSH2 0xAC8 SWAP1 PUSH2 0x1A6A JUMP JUMPDEST DUP1 ISZERO PUSH2 0xB15 JUMPI DUP1 PUSH1 0x1F LT PUSH2 0xAEA JUMPI PUSH2 0x100 DUP1 DUP4 SLOAD DIV MUL DUP4 MSTORE SWAP2 PUSH1 0x20 ADD SWAP2 PUSH2 0xB15 JUMP JUMPDEST DUP3 ADD SWAP2 SWAP1 PUSH1 0x0 MSTORE PUSH1 0x20 PUSH1 0x0 KECCAK256 SWAP1 JUMPDEST DUP2 SLOAD DUP2 MSTORE SWAP1 PUSH1 0x1 ADD SWAP1 PUSH1 0x20 ADD DUP1 DUP4 GT PUSH2 0xAF8 JUMPI DUP3 SWAP1 SUB PUSH1 0x1F AND DUP3 ADD SWAP2 JUMPDEST POP POP POP POP POP DUP2 MSTORE PUSH1 0x20 ADD PUSH1 0x2 DUP3 ADD DUP1 SLOAD PUSH2 0xB2E SWAP1 PUSH2 0x1A6A JUMP JUMPDEST DUP1 PUSH1 0x1F ADD PUSH1 0x20 DUP1 SWAP2 DIV MUL PUSH1 0x20 ADD PUSH1 0x40 MLOAD SWAP1 DUP2 ADD PUSH1 0x40 MSTORE DUP1 SWAP3 SWAP2 SWAP1 DUP2 DUP2 MSTORE PUSH1 0x20 ADD DUP3 DUP1 SLOAD PUSH2 0xB5A SWAP1 PUSH2 0x1A6A JUMP JUMPDEST DUP1 ISZERO PUSH2 0xBA7 JUMPI DUP1 PUSH1 0x1F LT PUSH2 0xB7C JUMPI PUSH2 0x100 DUP1 DUP4 SLOAD DIV MUL DUP4 MSTORE SWAP2 PUSH1 0x20 ADD SWAP2 PUSH2 0xBA7 JUMP JUMPDEST DUP3 ADD SWAP2 SWAP1 PUSH1 0x0 MSTORE PUSH1 0x20 PUSH1 0x0 KECCAK256 SWAP1 JUMPDEST DUP2 SLOAD DUP2 MSTORE SWAP1 PUSH1 0x1 ADD SWAP1 PUSH1 0x20 ADD DUP1 DUP4 GT PUSH2 0xB8A JUMPI DUP3 SWAP1 SUB PUSH1 0x1F AND DUP3 ADD SWAP2 JUMPDEST POP POP POP POP POP DUP2 MSTORE PUSH1 0x20 ADD PUSH1 0x3 DUP3 ADD DUP1 SLOAD PUSH2 0xBC0 SWAP1 PUSH2 0x1A6A JUMP JUMPDEST DUP1 PUSH1 0x1F ADD PUSH1 0x20 DUP1 SWAP2 DIV MUL PUSH1 0x20 ADD PUSH1 0x40 MLOAD SWAP1 DUP2 ADD PUSH1 0x40 MSTORE DUP1 SWAP3 SWAP2 SWAP1 DUP2 DUP2 MSTORE PUSH1 0x20 ADD DUP3 DUP1 SLOAD PUSH2 0xBEC SWAP1 PUSH2 0x1A6A JUMP JUMPDEST DUP1 ISZERO PUSH2 0xC39 JUMPI DUP1 PUSH1 0x1F LT PUSH2 0xC0E JUMPI PUSH2 0x100 DUP1 DUP4 SLOAD DIV MUL DUP4 MSTORE SWAP2 PUSH1 0x20 ADD SWAP2 PUSH2 0xC39 JUMP JUMPDEST DUP3 ADD SWAP2 SWAP1 PUSH1 0x0 MSTORE PUSH1 0x20 PUSH1 0x0 KECCAK256 SWAP1 JUMPDEST DUP2 SLOAD DUP2 MSTORE SWAP1 PUSH1 0x1 ADD SWAP1 PUSH1 0x20 ADD DUP1 DUP4 GT PUSH2 0xC1C JUMPI DUP3 SWAP1 SUB PUSH1 0x1F AND DUP3 ADD SWAP2 JUMPDEST POP POP POP SWAP2 DUP4 MSTORE POP POP PUSH1 0x4 DUP3 ADD SLOAD PUSH1 0x20 DUP3 ADD MSTORE PUSH1 0x5 DUP3 ADD SLOAD PUSH1 0x40 DUP3 ADD MSTORE PUSH1 0x6 DUP3 ADD SLOAD PUSH1 0xFF DUP1 DUP3 AND ISZERO ISZERO PUSH1 0x60 DUP5 ADD MSTORE PUSH2 0x100 SWAP1 SWAP2 DIV AND ISZERO ISZERO PUSH1 0x80 DUP3 ADD MSTORE PUSH1 0x7 DUP3 ADD DUP1 SLOAD PUSH1 0xA0 SWAP1 SWAP3 ADD SWAP2 PUSH2 0xC89 SWAP1 PUSH2 0x1A6A JUMP JUMPDEST DUP1 PUSH1 0x1F ADD PUSH1 0x20 DUP1 SWAP2 DIV MUL PUSH1 0x20 ADD PUSH1 0x40 MLOAD SWAP1 DUP2 ADD PUSH1 0x40 MSTORE DUP1 SWAP3 SWAP2 SWAP1 DUP2 DUP2 MSTORE PUSH1 0x20 ADD DUP3 DUP1 SLOAD PUSH2 0xCB5 SWAP1 PUSH2 0x1A6A JUMP JUMPDEST DUP1 ISZERO PUSH2 0xD02 JUMPI DUP1 PUSH1 0x1F LT PUSH2 0xCD7 JUMPI PUSH2 0x100 DUP1 DUP4 SLOAD DIV MUL DUP4 MSTORE SWAP2 PUSH1 0x20 ADD SWAP2 PUSH2 0xD02 JUMP JUMPDEST DUP3 ADD SWAP2 SWAP1 PUSH1 0x0 MSTORE PUSH1 0x20 PUSH1 0x0 KECCAK256 SWAP1 JUMPDEST DUP2 SLOAD DUP2 MSTORE SWAP1 PUSH1 0x1 ADD SWAP1 PUSH1 0x20 ADD DUP1 DUP4 GT PUSH2 0xCE5 JUMPI DUP3 SWAP1 SUB PUSH1 0x1F AND DUP3 ADD SWAP2 JUMPDEST POP POP POP POP POP DUP2 MSTORE PUSH1 0x20 ADD PUSH1 0x8 DUP3 ADD DUP1 SLOAD PUSH2 0xD1B SWAP1 PUSH2 0x1A6A JUMP JUMPDEST DUP1 PUSH1 0x1F ADD PUSH1 0x20 DUP1 SWAP2 DIV MUL PUSH1 0x20 ADD PUSH1 0x40 MLOAD SWAP1 DUP2 ADD PUSH1 0x40 MSTORE DUP1 SWAP3 SWAP2 SWAP1 DUP2 DUP2 MSTORE PUSH1 0x20 ADD DUP3 DUP1 SLOAD PUSH2 0xD47 SWAP1 PUSH2 0x1A6A JUMP JUMPDEST DUP1 ISZERO PUSH2 0xD94 JUMPI DUP1 PUSH1 0x1F LT PUSH2 0xD69 JUMPI PUSH2 0x100 DUP1 DUP4 SLOAD DIV MUL DUP4 MSTORE SWAP2 PUSH1 0x20 ADD SWAP2 PUSH2 0xD94 JUMP JUMPDEST DUP3 ADD SWAP2 SWAP1 PUSH1 0x0 MSTORE PUSH1 0x20 PUSH1 0x0 KECCAK256 SWAP1 JUMPDEST DUP2 SLOAD DUP2 MSTORE SWAP1 PUSH1 0x1 ADD SWAP1 PUSH1 0x20 ADD DUP1 DUP4 GT PUSH2 0xD77 JUMPI DUP3 SWAP1 SUB PUSH1 0x1F AND DUP3 ADD SWAP2 JUMPDEST POP POP POP POP POP DUP2 MSTORE PUSH1 0x20 ADD PUSH1 0x9 DUP3 ADD PUSH1 0x0 SWAP1 SLOAD SWAP1 PUSH2 0x100 EXP SWAP1 DIV PUSH1 0x1 PUSH1 0x1 PUSH1 0xA0 SHL SUB AND PUSH1 0x1 PUSH1 0x1 PUSH1 0xA0 SHL SUB AND PUSH1 0x1 PUSH1 0x1 PUSH1 0xA0 SHL SUB AND DUP2 MSTORE POP POP SWAP1 POP DUP1 PUSH1 0x0 ADD MLOAD DUP2 PUSH1 0x20 ADD MLOAD DUP3 PUSH1 0x40 ADD MLOAD DUP4 PUSH1 0x60 ADD MLOAD DUP5 PUSH1 0x80 ADD MLOAD DUP6 PUSH1 0xA0 ADD MLOAD DUP7 PUSH1 0xC0 ADD MLOAD DUP8 PUSH1 0xE0 ADD MLOAD DUP9 PUSH2 0x100 ADD MLOAD DUP10 PUSH2 0x120 ADD MLOAD DUP11 PUSH2 0x140 ADD MLOAD SWAP13 POP SWAP13 POP SWAP13 POP SWAP13 POP SWAP13 POP SWAP13 POP SWAP13 POP SWAP13 POP SWAP13 POP SWAP13 POP SWAP13 POP POP POP SWAP2 SWAP4 SWAP6 SWAP8 SWAP10 SWAP12 SWAP1 SWAP3 SWAP5 SWAP7 SWAP9 SWAP11 POP JUMP JUMPDEST DUP1 PUSH1 0x1 DUP2 PUSH1 0x40 MLOAD PUSH2 0xE40 SWAP2 SWAP1 PUSH2 0x1A4E JUMP JUMPDEST SWAP1 DUP2 MSTORE PUSH1 0x40 MLOAD SWAP1 DUP2 SWAP1 SUB PUSH1 0x20 ADD SWAP1 KECCAK256 SLOAD PUSH1 0xFF AND PUSH2 0xE6F JUMPI PUSH1 0x40 MLOAD PUSH3 0x461BCD PUSH1 0xE5 SHL DUP2 MSTORE PUSH1 0x4 ADD PUSH2 0x229 SWAP1 PUSH2 0x1BEB JUMP JUMPDEST PUSH1 0x0 DUP1 DUP4 PUSH1 0x40 MLOAD PUSH2 0xE80 SWAP2 SWAP1 PUSH2 0x1A4E JUMP JUMPDEST SWAP1 DUP2 MSTORE PUSH1 0x40 MLOAD SWAP1 DUP2 SWAP1 SUB PUSH1 0x20 ADD SWAP1 KECCAK256 PUSH1 0x6 DUP2 ADD SLOAD SWAP1 SWAP2 POP PUSH1 0xFF AND ISZERO PUSH2 0xEDF JUMPI PUSH1 0x40 MLOAD PUSH3 0x461BCD PUSH1 0xE5 SHL DUP2 MSTORE PUSH1 0x20 PUSH1 0x4 DUP3 ADD MSTORE PUSH1 0x15 PUSH1 0x24 DUP3 ADD MSTORE PUSH21 0x10985D18DA08185B1C9958591E48195E1C1A5C9959 PUSH1 0x5A SHL PUSH1 0x44 DUP3 ADD MSTORE PUSH1 0x64 ADD PUSH2 0x229 JUMP JUMPDEST DUP1 PUSH1 0x5 ADD SLOAD TIMESTAMP LT ISZERO PUSH2 0xF2B JUMPI PUSH1 0x40 MLOAD PUSH3 0x461BCD PUSH1 0xE5 SHL DUP2 MSTORE PUSH1 0x20 PUSH1 0x4 DUP3 ADD MSTORE PUSH1 0x15 PUSH1 0x24 DUP3 ADD MSTORE PUSH21 0x10985D18DA081B9BDD081E595D08195E1C1A5C9959 PUSH1 0x5A SHL PUSH1 0x44 DUP3 ADD MSTORE PUSH1 0x64 ADD PUSH2 0x229 JUMP JUMPDEST PUSH1 0x6 DUP2 ADD DUP1 SLOAD PUSH1 0xFF NOT AND PUSH1 0x1 OR SWAP1 SSTORE PUSH1 0x40 MLOAD PUSH32 0x4D162764164A3AD7275221DA892FCBDEC29CFE24C39F4E03B62771A84AAE581E SWAP1 PUSH2 0xF6A SWAP1 DUP6 SWAP1 PUSH2 0x1C47 JUMP JUMPDEST PUSH1 0x40 MLOAD DUP1 SWAP2 SUB SWAP1 LOG1 POP POP POP JUMP JUMPDEST DUP2 PUSH1 0x1 DUP2 PUSH1 0x40 MLOAD PUSH2 0xF88 SWAP2 SWAP1 PUSH2 0x1A4E JUMP JUMPDEST SWAP1 DUP2 MSTORE PUSH1 0x40 MLOAD SWAP1 DUP2 SWAP1 SUB PUSH1 0x20 ADD SWAP1 KECCAK256 SLOAD PUSH1 0xFF AND PUSH2 0xFB7 JUMPI PUSH1 0x40 MLOAD PUSH3 0x461BCD PUSH1 0xE5 SHL DUP2 MSTORE PUSH1 0x4 ADD PUSH2 0x229 SWAP1 PUSH2 0x1BEB JUMP JUMPDEST PUSH1 0x0 DUP1 DUP5 PUSH1 0x40 MLOAD PUSH2 0xFC8 SWAP2 SWAP1 PUSH2 0x1A4E JUMP JUMPDEST SWAP1 DUP2 MSTORE PUSH1 0x40 MLOAD SWAP1 DUP2 SWAP1 SUB PUSH1 0x20 ADD SWAP1 KECCAK256 PUSH1 0x9 DUP2 ADD SLOAD SWAP1 SWAP2 POP PUSH1 0x1 PUSH1 0x1 PUSH1 0xA0 SHL SUB AND CALLER EQ PUSH2 0x1036 JUMPI PUSH1 0x40 MLOAD PUSH3 0x461BCD PUSH1 0xE5 SHL DUP2 MSTORE PUSH1 0x20 PUSH1 0x4 DUP3 ADD DUP2 SWAP1 MSTORE PUSH1 0x24 DUP3 ADD MSTORE PUSH32 0x4F6E6C792063757272656E7420686F6C6465722063616E207472616E73666572 PUSH1 0x44 DUP3 ADD MSTORE PUSH1 0x64 ADD PUSH2 0x229 JUMP JUMPDEST PUSH1 0x6 DUP2 ADD SLOAD PUSH1 0xFF AND ISZERO PUSH2 0x108B JUMPI PUSH1 0x40 MLOAD PUSH3 0x461BCD PUSH1 0xE5 SHL DUP2 MSTORE PUSH1 0x20 PUSH1 0x4 DUP3 ADD MSTORE PUSH1 0x1D PUSH1 0x24 DUP3 ADD MSTORE PUSH32 0x43616E6E6F74207472616E736665722065787069726564206261746368000000 PUSH1 0x44 DUP3 ADD MSTORE PUSH1 0x64 ADD PUSH2 0x229 JUMP JUMPDEST PUSH1 0x6 DUP2 ADD SLOAD PUSH2 0x100 SWAP1 DIV PUSH1 0xFF AND ISZERO PUSH2 0x10E5 JUMPI PUSH1 0x40 MLOAD PUSH3 0x461BCD PUSH1 0xE5 SHL DUP2 MSTORE PUSH1 0x20 PUSH1 0x4 DUP3 ADD MSTORE PUSH1 0x1D PUSH1 0x24 DUP3 ADD MSTORE PUSH32 0x43616E6E6F74207472616E736665722073706F696C6564206261746368000000 PUSH1 0x44 DUP3 ADD MSTORE PUSH1 0x64 ADD PUSH2 0x229 JUMP JUMPDEST PUSH1 0x9 DUP2 ADD DUP1 SLOAD PUSH1 0x1 PUSH1 0x1 PUSH1 0xA0 SHL SUB DUP6 DUP2 AND PUSH1 0x1 PUSH1 0x1 PUSH1 0xA0 SHL SUB NOT DUP4 AND OR SWAP1 SWAP3 SSTORE PUSH1 0x40 MLOAD SWAP2 AND SWAP1 PUSH32 0xA8B047DB3C9B378A978A9CC59C0F75A2671F935A140D6799F8F56104F0EC6DD6 SWAP1 PUSH2 0x113C SWAP1 DUP8 SWAP1 DUP5 SWAP1 DUP9 SWAP1 PUSH2 0x1C61 JUMP JUMPDEST PUSH1 0x40 MLOAD DUP1 SWAP2 SUB SWAP1 LOG1 POP POP POP POP POP JUMP JUMPDEST PUSH1 0x0 DUP2 PUSH1 0x1 DUP2 PUSH1 0x40 MLOAD PUSH2 0x115E SWAP2 SWAP1 PUSH2 0x1A4E JUMP JUMPDEST SWAP1 DUP2 MSTORE PUSH1 0x40 MLOAD SWAP1 DUP2 SWAP1 SUB PUSH1 0x20 ADD SWAP1 KECCAK256 SLOAD PUSH1 0xFF AND PUSH2 0x118D JUMPI PUSH1 0x40 MLOAD PUSH3 0x461BCD PUSH1 0xE5 SHL DUP2 MSTORE PUSH1 0x4 ADD PUSH2 0x229 SWAP1 PUSH2 0x1BEB JUMP JUMPDEST PUSH1 0x0 DUP1 DUP5 PUSH1 0x40 MLOAD PUSH2 0x119E SWAP2 SWAP1 PUSH2 0x1A4E JUMP JUMPDEST SWAP1 DUP2 MSTORE PUSH1 0x20 ADD PUSH1 0x40 MLOAD DUP1 SWAP2 SUB SWAP1 KECCAK256 PUSH1 0x40 MLOAD DUP1 PUSH2 0x160 ADD PUSH1 0x40 MSTORE SWAP1 DUP2 PUSH1 0x0 DUP3 ADD DUP1 SLOAD PUSH2 0x11C8 SWAP1 PUSH2 0x1A6A JUMP JUMPDEST DUP1 PUSH1 0x1F ADD PUSH1 0x20 DUP1 SWAP2 DIV MUL PUSH1 0x20 ADD PUSH1 0x40 MLOAD SWAP1 DUP2 ADD PUSH1 0x40 MSTORE DUP1 SWAP3 SWAP2 SWAP1 DUP2 DUP2 MSTORE PUSH1 0x20 ADD DUP3 DUP1 SLOAD PUSH2 0x11F4 SWAP1 PUSH2 0x1A6A JUMP JUMPDEST DUP1 ISZERO PUSH2 0x1241 JUMPI DUP1 PUSH1 0x1F LT PUSH2 0x1216 JUMPI PUSH2 0x100 DUP1 DUP4 SLOAD DIV MUL DUP4 MSTORE SWAP2 PUSH1 0x20 ADD SWAP2 PUSH2 0x1241 JUMP JUMPDEST DUP3 ADD SWAP2 SWAP1 PUSH1 0x0 MSTORE PUSH1 0x20 PUSH1 0x0 KECCAK256 SWAP1 JUMPDEST DUP2 SLOAD DUP2 MSTORE SWAP1 PUSH1 0x1 ADD SWAP1 PUSH1 0x20 ADD DUP1 DUP4 GT PUSH2 0x1224 JUMPI DUP3 SWAP1 SUB PUSH1 0x1F AND DUP3 ADD SWAP2 JUMPDEST POP POP POP POP POP DUP2 MSTORE PUSH1 0x20 ADD PUSH1 0x1 DUP3 ADD DUP1 SLOAD PUSH2 0x125A SWAP1 PUSH2 0x1A6A JUMP JUMPDEST DUP1 PUSH1 0x1F ADD PUSH1 0x20 DUP1 SWAP2 DIV MUL PUSH1 0x20 ADD PUSH1 0x40 MLOAD SWAP1 DUP2 ADD PUSH1 0x40 MSTORE DUP1 SWAP3 SWAP2 SWAP1 DUP2 DUP2 MSTORE PUSH1 0x20 ADD DUP3 DUP1 SLOAD PUSH2 0x1286 SWAP1 PUSH2 0x1A6A JUMP JUMPDEST DUP1 ISZERO PUSH2 0x12D3 JUMPI DUP1 PUSH1 0x1F LT PUSH2 0x12A8 JUMPI PUSH2 0x100 DUP1 DUP4 SLOAD DIV MUL DUP4 MSTORE SWAP2 PUSH1 0x20 ADD SWAP2 PUSH2 0x12D3 JUMP JUMPDEST DUP3 ADD SWAP2 SWAP1 PUSH1 0x0 MSTORE PUSH1 0x20 PUSH1 0x0 KECCAK256 SWAP1 JUMPDEST DUP2 SLOAD DUP2 MSTORE SWAP1 PUSH1 0x1 ADD SWAP1 PUSH1 0x20 ADD DUP1 DUP4 GT PUSH2 0x12B6 JUMPI DUP3 SWAP1 SUB PUSH1 0x1F AND DUP3 ADD SWAP2 JUMPDEST POP POP POP POP POP DUP2 MSTORE PUSH1 0x20 ADD PUSH1 0x2 DUP3 ADD DUP1 SLOAD PUSH2 0x12EC SWAP1 PUSH2 0x1A6A JUMP JUMPDEST DUP1 PUSH1 0x1F ADD PUSH1 0x20 DUP1 SWAP2 DIV MUL PUSH1 0x20 ADD PUSH1 0x40 MLOAD SWAP1 DUP2 ADD PUSH1 0x40 MSTORE DUP1 SWAP3 SWAP2 SWAP1 DUP2 DUP2 MSTORE PUSH1 0x20 ADD DUP3 DUP1 SLOAD PUSH2 0x1318 SWAP1 PUSH2 0x1A6A JUMP JUMPDEST DUP1 ISZERO PUSH2 0x1365 JUMPI DUP1 PUSH1 0x1F LT PUSH2 0x133A JUMPI PUSH2 0x100 DUP1 DUP4 SLOAD DIV MUL DUP4 MSTORE SWAP2 PUSH1 0x20 ADD SWAP2 PUSH2 0x1365 JUMP JUMPDEST DUP3 ADD SWAP2 SWAP1 PUSH1 0x0 MSTORE PUSH1 0x20 PUSH1 0x0 KECCAK256 SWAP1 JUMPDEST DUP2 SLOAD DUP2 MSTORE SWAP1 PUSH1 0x1 ADD SWAP1 PUSH1 0x20 ADD DUP1 DUP4 GT PUSH2 0x1348 JUMPI DUP3 SWAP1 SUB PUSH1 0x1F AND DUP3 ADD SWAP2 JUMPDEST POP POP POP POP POP DUP2 MSTORE PUSH1 0x20 ADD PUSH1 0x3 DUP3 ADD DUP1 SLOAD PUSH2 0x137E SWAP1 PUSH2 0x1A6A JUMP JUMPDEST DUP1 PUSH1 0x1F ADD PUSH1 0x20 DUP1 SWAP2 DIV MUL PUSH1 0x20 ADD PUSH1 0x40 MLOAD SWAP1 DUP2 ADD PUSH1 0x40 MSTORE DUP1 SWAP3 SWAP2 SWAP1 DUP2 DUP2 MSTORE PUSH1 0x20 ADD DUP3 DUP1 SLOAD PUSH2 0x13AA SWAP1 PUSH2 0x1A6A JUMP JUMPDEST DUP1 ISZERO PUSH2 0x13F7 JUMPI DUP1 PUSH1 0x1F LT PUSH2 0x13CC JUMPI PUSH2 0x100 DUP1 DUP4 SLOAD DIV MUL DUP4 MSTORE SWAP2 PUSH1 0x20 ADD SWAP2 PUSH2 0x13F7 JUMP JUMPDEST DUP3 ADD SWAP2 SWAP1 PUSH1 0x0 MSTORE PUSH1 0x20 PUSH1 0x0 KECCAK256 SWAP1 JUMPDEST DUP2 SLOAD DUP2 MSTORE SWAP1 PUSH1 0x1 ADD SWAP1 PUSH1 0x20 ADD DUP1 DUP4 GT PUSH2 0x13DA JUMPI DUP3 SWAP1 SUB PUSH1 0x1F AND DUP3 ADD SWAP2 JUMPDEST POP POP POP SWAP2 DUP4 MSTORE POP POP PUSH1 0x4 DUP3 ADD SLOAD PUSH1 0x20 DUP3 ADD MSTORE PUSH1 0x5 DUP3 ADD SLOAD PUSH1 0x40 DUP3 ADD MSTORE PUSH1 0x6 DUP3 ADD SLOAD PUSH1 0xFF DUP1 DUP3 AND ISZERO ISZERO PUSH1 0x60 DUP5 ADD MSTORE PUSH2 0x100 SWAP1 SWAP2 DIV AND ISZERO ISZERO PUSH1 0x80 DUP3 ADD MSTORE PUSH1 0x7 DUP3 ADD DUP1 SLOAD PUSH1 0xA0 SWAP1 SWAP3 ADD SWAP2 PUSH2 0x1447 SWAP1 PUSH2 0x1A6A JUMP JUMPDEST DUP1 PUSH1 0x1F ADD PUSH1 0x20 DUP1 SWAP2 DIV MUL PUSH1 0x20 ADD PUSH1 0x40 MLOAD SWAP1 DUP2 ADD PUSH1 0x40 MSTORE DUP1 SWAP3 SWAP2 SWAP1 DUP2 DUP2 MSTORE PUSH1 0x20 ADD DUP3 DUP1 SLOAD PUSH2 0x1473 SWAP1 PUSH2 0x1A6A JUMP JUMPDEST DUP1 ISZERO PUSH2 0x14C0 JUMPI DUP1 PUSH1 0x1F LT PUSH2 0x1495 JUMPI PUSH2 0x100 DUP1 DUP4 SLOAD DIV MUL DUP4 MSTORE SWAP2 PUSH1 0x20 ADD SWAP2 PUSH2 0x14C0 JUMP JUMPDEST DUP3 ADD SWAP2 SWAP1 PUSH1 0x0 MSTORE PUSH1 0x20 PUSH1 0x0 KECCAK256 SWAP1 JUMPDEST DUP2 SLOAD DUP2 MSTORE SWAP1 PUSH1 0x1 ADD SWAP1 PUSH1 0x20 ADD DUP1 DUP4 GT PUSH2 0x14A3 JUMPI DUP3 SWAP1 SUB PUSH1 0x1F AND DUP3 ADD SWAP2 JUMPDEST POP POP POP POP POP DUP2 MSTORE PUSH1 0x20 ADD PUSH1 0x8 DUP3 ADD DUP1 SLOAD PUSH2 0x14D9 SWAP1 PUSH2 0x1A6A JUMP JUMPDEST DUP1 PUSH1 0x1F ADD PUSH1 0x20 DUP1 SWAP2 DIV MUL PUSH1 0x20 ADD PUSH1 0x40 MLOAD SWAP1 DUP2 ADD PUSH1 0x40 MSTORE DUP1 SWAP3 SWAP2 SWAP1 DUP2 DUP2 MSTORE PUSH1 0x20 ADD DUP3 DUP1 SLOAD PUSH2 0x1505 SWAP1 PUSH2 0x1A6A JUMP JUMPDEST DUP1 ISZERO PUSH2 0x1552 JUMPI DUP1 PUSH1 0x1F LT PUSH2 0x1527 JUMPI PUSH2 0x100 DUP1 DUP4 SLOAD DIV MUL DUP4 MSTORE SWAP2 PUSH1 0x20 ADD SWAP2 PUSH2 0x1552 JUMP JUMPDEST DUP3 ADD SWAP2 SWAP1 PUSH1 0x0 MSTORE PUSH1 0x20 PUSH1 0x0 KECCAK256 SWAP1 JUMPDEST DUP2 SLOAD DUP2 MSTORE SWAP1 PUSH1 0x1 ADD SWAP1 PUSH1 0x20 ADD DUP1 DUP4 GT PUSH2 0x1535 JUMPI DUP3 SWAP1 SUB PUSH1 0x1F AND DUP3 ADD SWAP2 JUMPDEST POP POP POP SWAP2 DUP4 MSTORE POP POP PUSH1 0x9 SWAP2 SWAP1 SWAP2 ADD SLOAD PUSH1 0x1 PUSH1 0x1 PUSH1 0xA0 SHL SUB AND PUSH1 0x20 SWAP1 SWAP2 ADD MSTORE PUSH1 0xC0 DUP2 ADD MLOAD SWAP1 SWAP2 POP ISZERO DUP1 ISZERO PUSH2 0x1587 JUMPI POP DUP1 PUSH1 0xE0 ADD MLOAD ISZERO JUMPDEST DUP1 ISZERO PUSH2 0x1596 JUMPI POP DUP1 PUSH1 0xA0 ADD MLOAD TIMESTAMP LT JUMPDEST SWAP3 POP POP JUMPDEST POP SWAP2 SWAP1 POP JUMP JUMPDEST DUP2 PUSH1 0x1 DUP2 PUSH1 0x40 MLOAD PUSH2 0x15B1 SWAP2 SWAP1 PUSH2 0x1A4E JUMP JUMPDEST SWAP1 DUP2 MSTORE PUSH1 0x40 MLOAD SWAP1 DUP2 SWAP1 SUB PUSH1 0x20 ADD SWAP1 KECCAK256 SLOAD PUSH1 0xFF AND PUSH2 0x15E0 JUMPI PUSH1 0x40 MLOAD PUSH3 0x461BCD PUSH1 0xE5 SHL DUP2 MSTORE PUSH1 0x4 ADD PUSH2 0x229 SWAP1 PUSH2 0x1BEB JUMP JUMPDEST PUSH1 0x0 DUP1 DUP5 PUSH1 0x40 MLOAD PUSH2 0x15F1 SWAP2 SWAP1 PUSH2 0x1A4E JUMP JUMPDEST SWAP1 DUP2 MSTORE PUSH1 0x40 MLOAD SWAP1 DUP2 SWAP1 SUB PUSH1 0x20 ADD SWAP1 KECCAK256 PUSH1 0x9 DUP2 ADD SLOAD SWAP1 SWAP2 POP PUSH1 0x1 PUSH1 0x1 PUSH1 0xA0 SHL SUB AND CALLER EQ PUSH2 0x1672 JUMPI PUSH1 0x40 MLOAD PUSH3 0x461BCD PUSH1 0xE5 SHL DUP2 MSTORE PUSH1 0x20 PUSH1 0x4 DUP3 ADD MSTORE PUSH1 0x2A PUSH1 0x24 DUP3 ADD MSTORE PUSH32 0x4F6E6C792063757272656E7420686F6C6465722063616E207570646174652063 PUSH1 0x44 DUP3 ADD MSTORE PUSH10 0x65727469666963617465 PUSH1 0xB0 SHL PUSH1 0x64 DUP3 ADD MSTORE PUSH1 0x84 ADD PUSH2 0x229 JUMP JUMPDEST PUSH1 0x8 DUP2 ADD PUSH2 0x1680 DUP5 DUP3 PUSH2 0x1AED JUMP JUMPDEST POP PUSH32 0x29649C862EEEBC82C2468FAD07DFAFCA561AE42A8130CA7F8B9DD32E668A6347 DUP5 DUP5 PUSH1 0x40 MLOAD PUSH2 0x970 SWAP3 SWAP2 SWAP1 PUSH2 0x1C19 JUMP JUMPDEST PUSH4 0x4E487B71 PUSH1 0xE0 SHL PUSH1 0x0 MSTORE PUSH1 0x41 PUSH1 0x4 MSTORE PUSH1 0x24 PUSH1 0x0 REVERT JUMPDEST PUSH1 0x0 DUP3 PUSH1 0x1F DUP4 ADD SLT PUSH2 0x16D9 JUMPI PUSH1 0x0 DUP1 REVERT JUMPDEST DUP2 CALLDATALOAD PUSH8 0xFFFFFFFFFFFFFFFF DUP1 DUP3 GT ISZERO PUSH2 0x16F4 JUMPI PUSH2 0x16F4 PUSH2 0x16B2 JUMP JUMPDEST PUSH1 0x40 MLOAD PUSH1 0x1F DUP4 ADD PUSH1 0x1F NOT SWAP1 DUP2 AND PUSH1 0x3F ADD AND DUP2 ADD SWAP1 DUP3 DUP3 GT DUP2 DUP4 LT OR ISZERO PUSH2 0x171C JUMPI PUSH2 0x171C PUSH2 0x16B2 JUMP JUMPDEST DUP2 PUSH1 0x40 MSTORE DUP4 DUP2 MSTORE DUP7 PUSH1 0x20 DUP6 DUP9 ADD ADD GT ISZERO PUSH2 0x1735 JUMPI PUSH1 0x0 DUP1 REVERT JUMPDEST DUP4 PUSH1 0x20 DUP8 ADD PUSH1 0x20 DUP4 ADD CALLDATACOPY PUSH1 0x0 PUSH1 0x20 DUP6 DUP4 ADD ADD MSTORE DUP1 SWAP5 POP POP POP POP POP SWAP3 SWAP2 POP POP JUMP JUMPDEST PUSH1 0x0 DUP1 PUSH1 0x0 DUP1 PUSH1 0x0 DUP1 PUSH1 0x0 PUSH1 0xE0 DUP9 DUP11 SUB SLT ISZERO PUSH2 0x1770 JUMPI PUSH1 0x0 DUP1 REVERT JUMPDEST DUP8 CALLDATALOAD PUSH8 0xFFFFFFFFFFFFFFFF DUP1 DUP3 GT ISZERO PUSH2 0x1788 JUMPI PUSH1 0x0 DUP1 REVERT JUMPDEST PUSH2 0x1794 DUP12 DUP4 DUP13 ADD PUSH2 0x16C8 JUMP JUMPDEST SWAP9 POP PUSH1 0x20 DUP11 ADD CALLDATALOAD SWAP2 POP DUP1 DUP3 GT ISZERO PUSH2 0x17AA JUMPI PUSH1 0x0 DUP1 REVERT JUMPDEST PUSH2 0x17B6 DUP12 DUP4 DUP13 ADD PUSH2 0x16C8 JUMP JUMPDEST SWAP8 POP PUSH1 0x40 DUP11 ADD CALLDATALOAD SWAP2 POP DUP1 DUP3 GT ISZERO PUSH2 0x17CC JUMPI PUSH1 0x0 DUP1 REVERT JUMPDEST PUSH2 0x17D8 DUP12 DUP4 DUP13 ADD PUSH2 0x16C8 JUMP JUMPDEST SWAP7 POP PUSH1 0x60 DUP11 ADD CALLDATALOAD SWAP2 POP DUP1 DUP3 GT ISZERO PUSH2 0x17EE JUMPI PUSH1 0x0 DUP1 REVERT JUMPDEST PUSH2 0x17FA DUP12 DUP4 DUP13 ADD PUSH2 0x16C8 JUMP JUMPDEST SWAP6 POP PUSH1 0x80 DUP11 ADD CALLDATALOAD SWAP5 POP PUSH1 0xA0 DUP11 ADD CALLDATALOAD SWAP4 POP PUSH1 0xC0 DUP11 ADD CALLDATALOAD SWAP2 POP DUP1 DUP3 GT ISZERO PUSH2 0x181E JUMPI PUSH1 0x0 DUP1 REVERT JUMPDEST POP PUSH2 0x182B DUP11 DUP3 DUP12 ADD PUSH2 0x16C8 JUMP JUMPDEST SWAP2 POP POP SWAP3 SWAP6 SWAP9 SWAP2 SWAP5 SWAP8 POP SWAP3 SWAP6 POP JUMP JUMPDEST PUSH1 0x0 PUSH1 0x20 DUP3 DUP5 SUB SLT ISZERO PUSH2 0x184C JUMPI PUSH1 0x0 DUP1 REVERT JUMPDEST DUP2 CALLDATALOAD PUSH8 0xFFFFFFFFFFFFFFFF DUP2 GT ISZERO PUSH2 0x1863 JUMPI PUSH1 0x0 DUP1 REVERT JUMPDEST PUSH2 0x186F DUP5 DUP3 DUP6 ADD PUSH2 0x16C8 JUMP JUMPDEST SWAP5 SWAP4 POP POP POP POP JUMP JUMPDEST PUSH1 0x0 JUMPDEST DUP4 DUP2 LT ISZERO PUSH2 0x1892 JUMPI DUP2 DUP2 ADD MLOAD DUP4 DUP3 ADD MSTORE PUSH1 0x20 ADD PUSH2 0x187A JUMP JUMPDEST POP POP PUSH1 0x0 SWAP2 ADD MSTORE JUMP JUMPDEST PUSH1 0x0 DUP2 MLOAD DUP1 DUP5 MSTORE PUSH2 0x18B3 DUP2 PUSH1 0x20 DUP7 ADD PUSH1 0x20 DUP7 ADD PUSH2 0x1877 JUMP JUMPDEST PUSH1 0x1F ADD PUSH1 0x1F NOT AND SWAP3 SWAP1 SWAP3 ADD PUSH1 0x20 ADD SWAP3 SWAP2 POP POP JUMP JUMPDEST PUSH1 0x0 PUSH2 0x160 DUP1 DUP4 MSTORE PUSH2 0x18DB DUP2 DUP5 ADD DUP16 PUSH2 0x189B JUMP JUMPDEST SWAP1 POP DUP3 DUP2 SUB PUSH1 0x20 DUP5 ADD MSTORE PUSH2 0x18EF DUP2 DUP15 PUSH2 0x189B JUMP JUMPDEST SWAP1 POP DUP3 DUP2 SUB PUSH1 0x40 DUP5 ADD MSTORE PUSH2 0x1903 DUP2 DUP14 PUSH2 0x189B JUMP JUMPDEST SWAP1 POP DUP3 DUP2 SUB PUSH1 0x60 DUP5 ADD MSTORE PUSH2 0x1917 DUP2 DUP13 PUSH2 0x189B JUMP JUMPDEST SWAP1 POP DUP10 PUSH1 0x80 DUP5 ADD MSTORE DUP9 PUSH1 0xA0 DUP5 ADD MSTORE DUP8 ISZERO ISZERO PUSH1 0xC0 DUP5 ADD MSTORE PUSH2 0x193B PUSH1 0xE0 DUP5 ADD DUP9 ISZERO ISZERO SWAP1 MSTORE JUMP JUMPDEST DUP3 DUP2 SUB PUSH2 0x100 DUP5 ADD MSTORE PUSH2 0x194E DUP2 DUP8 PUSH2 0x189B JUMP JUMPDEST SWAP1 POP DUP3 DUP2 SUB PUSH2 0x120 DUP5 ADD MSTORE PUSH2 0x1963 DUP2 DUP7 PUSH2 0x189B JUMP JUMPDEST SWAP2 POP POP PUSH2 0x197C PUSH2 0x140 DUP4 ADD DUP5 PUSH1 0x1 PUSH1 0x1 PUSH1 0xA0 SHL SUB AND SWAP1 MSTORE JUMP JUMPDEST SWAP13 SWAP12 POP POP POP POP POP POP POP POP POP POP POP POP JUMP JUMPDEST PUSH1 0x0 DUP1 PUSH1 0x40 DUP4 DUP6 SUB SLT ISZERO PUSH2 0x199F JUMPI PUSH1 0x0 DUP1 REVERT JUMPDEST DUP3 CALLDATALOAD PUSH8 0xFFFFFFFFFFFFFFFF DUP1 DUP3 GT ISZERO PUSH2 0x19B7 JUMPI PUSH1 0x0 DUP1 REVERT JUMPDEST PUSH2 0x19C3 DUP7 DUP4 DUP8 ADD PUSH2 0x16C8 JUMP JUMPDEST SWAP4 POP PUSH1 0x20 DUP6 ADD CALLDATALOAD SWAP2 POP DUP1 DUP3 GT ISZERO PUSH2 0x19D9 JUMPI PUSH1 0x0 DUP1 REVERT JUMPDEST POP PUSH2 0x19E6 DUP6 DUP3 DUP7 ADD PUSH2 0x16C8 JUMP JUMPDEST SWAP2 POP POP SWAP3 POP SWAP3 SWAP1 POP JUMP JUMPDEST PUSH1 0x0 DUP1 PUSH1 0x40 DUP4 DUP6 SUB SLT ISZERO PUSH2 0x1A03 JUMPI PUSH1 0x0 DUP1 REVERT JUMPDEST DUP3 CALLDATALOAD PUSH8 0xFFFFFFFFFFFFFFFF DUP2 GT ISZERO PUSH2 0x1A1A JUMPI PUSH1 0x0 DUP1 REVERT JUMPDEST PUSH2 0x1A26 DUP6 DUP3 DUP7 ADD PUSH2 0x16C8 JUMP JUMPDEST SWAP3 POP POP PUSH1 0x20 DUP4 ADD CALLDATALOAD PUSH1 0x1 PUSH1 0x1 PUSH1 0xA0 SHL SUB DUP2 AND DUP2 EQ PUSH2 0x1A43 JUMPI PUSH1 0x0 DUP1 REVERT JUMPDEST DUP1 SWAP2 POP POP SWAP3 POP SWAP3 SWAP1 POP JUMP JUMPDEST PUSH1 0x0 DUP3 MLOAD PUSH2 0x1A60 DUP2 DUP5 PUSH1 0x20 DUP8 ADD PUSH2 0x1877 JUMP JUMPDEST SWAP2 SWAP1 SWAP2 ADD SWAP3 SWAP2 POP POP JUMP JUMPDEST PUSH1 0x1 DUP2 DUP2 SHR SWAP1 DUP3 AND DUP1 PUSH2 0x1A7E JUMPI PUSH1 0x7F DUP3 AND SWAP2 POP JUMPDEST PUSH1 0x20 DUP3 LT DUP2 SUB PUSH2 0x159A JUMPI PUSH4 0x4E487B71 PUSH1 0xE0 SHL PUSH1 0x0 MSTORE PUSH1 0x22 PUSH1 0x4 MSTORE PUSH1 0x24 PUSH1 0x0 REVERT JUMPDEST PUSH1 0x1F DUP3 GT ISZERO PUSH2 0x1AE8 JUMPI PUSH1 0x0 DUP2 DUP2 MSTORE PUSH1 0x20 DUP2 KECCAK256 PUSH1 0x1F DUP6 ADD PUSH1 0x5 SHR DUP2 ADD PUSH1 0x20 DUP7 LT ISZERO PUSH2 0x1AC5 JUMPI POP DUP1 JUMPDEST PUSH1 0x1F DUP6 ADD PUSH1 0x5 SHR DUP3 ADD SWAP2 POP JUMPDEST DUP2 DUP2 LT ISZERO PUSH2 0x1AE4 JUMPI DUP3 DUP2 SSTORE PUSH1 0x1 ADD PUSH2 0x1AD1 JUMP JUMPDEST POP POP POP JUMPDEST POP POP POP JUMP JUMPDEST DUP2 MLOAD PUSH8 0xFFFFFFFFFFFFFFFF DUP2 GT ISZERO PUSH2 0x1B07 JUMPI PUSH2 0x1B07 PUSH2 0x16B2 JUMP JUMPDEST PUSH2 0x1B1B DUP2 PUSH2 0x1B15 DUP5 SLOAD PUSH2 0x1A6A JUMP JUMPDEST DUP5 PUSH2 0x1A9E JUMP JUMPDEST PUSH1 0x20 DUP1 PUSH1 0x1F DUP4 GT PUSH1 0x1 DUP2 EQ PUSH2 0x1B50 JUMPI PUSH1 0x0 DUP5 ISZERO PUSH2 0x1B38 JUMPI POP DUP6 DUP4 ADD MLOAD JUMPDEST PUSH1 0x0 NOT PUSH1 0x3 DUP7 SWAP1 SHL SHR NOT AND PUSH1 0x1 DUP6 SWAP1 SHL OR DUP6 SSTORE PUSH2 0x1AE4 JUMP JUMPDEST PUSH1 0x0 DUP6 DUP2 MSTORE PUSH1 0x20 DUP2 KECCAK256 PUSH1 0x1F NOT DUP7 AND SWAP2 JUMPDEST DUP3 DUP2 LT ISZERO PUSH2 0x1B7F JUMPI DUP9 DUP7 ADD MLOAD DUP3 SSTORE SWAP5 DUP5 ADD SWAP5 PUSH1 0x1 SWAP1 SWAP2 ADD SWAP1 DUP5 ADD PUSH2 0x1B60 JUMP JUMPDEST POP DUP6 DUP3 LT ISZERO PUSH2 0x1B9D JUMPI DUP8 DUP6 ADD MLOAD PUSH1 0x0 NOT PUSH1 0x3 DUP9 SWAP1 SHL PUSH1 0xF8 AND SHR NOT AND DUP2 SSTORE JUMPDEST POP POP POP POP POP PUSH1 0x1 SWAP1 DUP2 SHL ADD SWAP1 SSTORE POP JUMP JUMPDEST PUSH1 0x60 DUP2 MSTORE PUSH1 0x0 PUSH2 0x1BC0 PUSH1 0x60 DUP4 ADD DUP7 PUSH2 0x189B JUMP JUMPDEST DUP3 DUP2 SUB PUSH1 0x20 DUP5 ADD MSTORE PUSH2 0x1BD2 DUP2 DUP7 PUSH2 0x189B JUMP JUMPDEST SWAP2 POP POP PUSH1 0x1 DUP1 PUSH1 0xA0 SHL SUB DUP4 AND PUSH1 0x40 DUP4 ADD MSTORE SWAP5 SWAP4 POP POP POP POP JUMP JUMPDEST PUSH1 0x20 DUP1 DUP3 MSTORE PUSH1 0x14 SWAP1 DUP3 ADD MSTORE PUSH20 0x10985D18DA08191BD95CC81B9BDD08195E1A5CDD PUSH1 0x62 SHL PUSH1 0x40 DUP3 ADD MSTORE PUSH1 0x60 ADD SWAP1 JUMP JUMPDEST PUSH1 0x40 DUP2 MSTORE PUSH1 0x0 PUSH2 0x1C2C PUSH1 0x40 DUP4 ADD DUP6 PUSH2 0x189B JUMP JUMPDEST DUP3 DUP2 SUB PUSH1 0x20 DUP5 ADD MSTORE PUSH2 0x1C3E DUP2 DUP6 PUSH2 0x189B JUMP JUMPDEST SWAP6 SWAP5 POP POP POP POP POP JUMP JUMPDEST PUSH1 0x20 DUP2 MSTORE PUSH1 0x0 PUSH2 0x1C5A PUSH1 0x20 DUP4 ADD DUP5 PUSH2 0x189B JUMP JUMPDEST SWAP4 SWAP3 POP POP POP JUMP JUMPDEST PUSH1 0x60 DUP2 MSTORE PUSH1 0x0 PUSH2 0x1C74 PUSH1 0x60 DUP4 ADD DUP7 PUSH2 0x189B JUMP JUMPDEST PUSH1 0x1 PUSH1 0x1 PUSH1 0xA0 SHL SUB SWAP5 DUP6 AND PUSH1 0x20 DUP5 ADD MSTORE SWAP3 SWAP1 SWAP4 AND PUSH1 0x40 SWAP1 SWAP2 ADD MSTORE SWAP3 SWAP2 POP POP JUMP INVALID LOG2 PUSH5 0x6970667358 0x22 SLT KECCAK256 0xDA DUP10 0xD7 CALLDATASIZE JUMPI RETURNDATACOPY SELFDESTRUCT SWAP11 0x5D 0xEA 0xEA BYTE GAS 0xC5 SWAP13 OR PUSH21 0x2A1B22B63A2888E2B6291BDC6649CD64736F6C6343 STOP ADDMOD SGT STOP CALLER "},"methodIdentifiers":{"autoExpire(string)":"9b7993f2","batchExists(string)":"e7903988","batches(string)":"7ef1446a","checkBatchValidity(string)":"f64cc02b","getBatchDetails(string)":"9a1e51ca","markAsSpoiled(string,string)":"813f14b3","owner()":"8da5cb5b","registerBatch(string,string,string,string,uint256,uint256,string)":"14c30a57","transferBatch(string,address)":"b401563b","updateCertificateHash(string,string)":"f986f931"}}}}}