{
  "_format": "hh-sol-artifact-1",
  "contractName": "QualityToken",
  "sourceName": "contracts/QualityToken.sol",
  "abi": [
    {
      "inputs": [],
      "stateMutability": "nonpayable",
      "type": "constructor"
    },
    {
      "anonymous": false,
      "inputs": [
        {
          "indexed": true,
          "internalType": "address",
          "name": "owner",
          "type": "address"
        },
        {
          "indexed": true,
          "internalType": "address",
          "name": "spender",
          "type": "address"
        },
        {
          "indexed": false,
          "internalType": "uint256",
          "name": "value",
          "type": "uint256"
        }
      ],
      "name": "Approval",
      "type": "event"
    },
    {
      "anonymous": false,
      "inputs": [
        {
          "indexed": true,
          "internalType": "address",
          "name": "from",
          "type": "address"
        },
        {
          "indexed": true,
          "internalType": "address",
          "name": "to",
          "type": "address"
        },
        {
          "indexed": false,
          "internalType": "uint256",
          "name": "value",
          "type": "uint256"
        }
      ],
      "name": "Transfer",
      "type": "event"
    },
    {
      "inputs": [
        {
          "internalType": "address",
          "name": "_minter",
          "type": "address"
        }
      ],
      "name": "addAuthorizedMinter",
      "outputs": [],
      "stateMutability": "nonpayable",
      "type": "function"
    },
    {
      "inputs": [
        {
          "internalType": "address",
          "name": "owner",
          "type": "address"
        },
        {
          "internalType": "address",
          "name": "spender",
          "type": "address"
        }
      ],
      "name": "allowance",
      "outputs": [
        {
          "internalType": "uint256",
          "name": "",
          "type": "uint256"
        }
      ],
      "stateMutability": "view",
      "type": "function"
    },
    {
      "inputs": [
        {
          "internalType": "address",
          "name": "spender",
          "type": "address"
        },
        {
          "internalType": "uint256",
          "name": "amount",
          "type": "uint256"
        }
      ],
      "name": "approve",
      "outputs": [
        {
          "internalType": "bool",
          "name": "",
          "type": "bool"
        }
      ],
      "stateMutability": "nonpayable",
      "type": "function"
    },
    {
      "inputs": [
        {
          "internalType": "address",
          "name": "",
          "type": "address"
        }
      ],
      "name": "authorizedMinters",
      "outputs": [
        {
          "internalType": "bool",
          "name": "",
          "type": "bool"
        }
      ],
      "stateMutability": "view",
      "type": "function"
    },
    {
      "inputs": [
        {
          "internalType": "address",
          "name": "account",
          "type": "address"
        }
      ],
      "name": "balanceOf",
      "outputs": [
        {
          "internalType": "uint256",
          "name": "",
          "type": "uint256"
        }
      ],
      "stateMutability": "view",
      "type": "function"
    },
    {
      "inputs": [],
      "name": "decimals",
      "outputs": [
        {
          "internalType": "uint8",
          "name": "",
          "type": "uint8"
        }
      ],
      "stateMutability": "view",
      "type": "function"
    },
    {
      "inputs": [
        {
          "internalType": "address",
          "name": "spender",
          "type": "address"
        },
        {
          "internalType": "uint256",
          "name": "subtractedValue",
          "type": "uint256"
        }
      ],
      "name": "decreaseAllowance",
      "outputs": [
        {
          "internalType": "bool",
          "name": "",
          "type": "bool"
        }
      ],
      "stateMutability": "nonpayable",
      "type": "function"
    },
    {
      "inputs": [
        {
          "internalType": "address",
          "name": "spender",
          "type": "address"
        },
        {
          "internalType": "uint256",
          "name": "addedValue",
          "type": "uint256"
        }
      ],
      "name": "increaseAllowance",
      "outputs": [
        {
          "internalType": "bool",
          "name": "",
          "type": "bool"
        }
      ],
      "stateMutability": "nonpayable",
      "type": "function"
    },
    {
      "inputs": [],
      "name": "name",
      "outputs": [
        {
          "internalType": "string",
          "name": "",
          "type": "string"
        }
      ],
      "stateMutability": "view",
      "type": "function"
    },
    {
      "inputs": [],
      "name": "owner",
      "outputs": [
        {
          "internalType": "address",
          "name": "",
          "type": "address"
        }
      ],
      "stateMutability": "view",
      "type": "function"
    },
    {
      "inputs": [],
      "name": "pharmaChainAddress",
      "outputs": [
        {
          "internalType": "address",
          "name": "",
          "type": "address"
        }
      ],
      "stateMutability": "view",
      "type": "function"
    },
    {
      "inputs": [
        {
          "internalType": "address",
          "name": "_to",
          "type": "address"
        },
        {
          "internalType": "uint256",
          "name": "_amount",
          "type": "uint256"
        }
      ],
      "name": "rewardQuality",
      "outputs": [],
      "stateMutability": "nonpayable",
      "type": "function"
    },
    {
      "inputs": [
        {
          "internalType": "address",
          "name": "_pharmaChainAddress",
          "type": "address"
        }
      ],
      "name": "setPharmaChainAddress",
      "outputs": [],
      "stateMutability": "nonpayable",
      "type": "function"
    },
    {
      "inputs": [],
      "name": "symbol",
      "outputs": [
        {
          "internalType": "string",
          "name": "",
          "type": "string"
        }
      ],
      "stateMutability": "view",
      "type": "function"
    },
    {
      "inputs": [],
      "name": "totalSupply",
      "outputs": [
        {
          "internalType": "uint256",
          "name": "",
          "type": "uint256"
        }
      ],
      "stateMutability": "view",
      "type": "function"
    },
    {
      "inputs": [
        {
          "internalType": "address",
          "name": "to",
          "type": "address"
        },
        {
          "internalType": "uint256",
          "name": "amount",
          "type": "uint256"
        }
      ],
      "name": "transfer",
      "outputs": [
        {
          "internalType": "bool",
          "name": "",
          "type": "bool"
        }
      ],
      "stateMutability": "nonpayable",
      "type": "function"
    },
    {
      "inputs": [
        {
          "internalType": "address",
          "name": "from",
          "type": "address"
        },
        {
          "internalType": "address",
          "name": "to",
          "type": "address"
        },
        {
          "internalType": "uint256",
          "name": "amount",
          "type": "uint256"
        }
      ],
      "name": "transferFrom",
      "outputs": [
        {
          "internalType": "bool",
          "name": "",
          "type": "bool"
        }
      ],
      "stateMutability": "nonpayable",
      "type": "function"
    }
  ],
  "bytecode": "0x60806040523480156200001157600080fd5b506040518060400160405280601981526020017f506861726d61436861696e205175616c69747920546f6b656e000000000000008152506040518060400160405280600381526020016214145560ea1b815250816003908162000075919062000241565b50600462000084828262000241565b5050600680546001600160a01b03191633908117909155620000cc9150620000aa601290565b620000b790600a62000422565b620000c690620f42406200043a565b620000d2565b6200046a565b6001600160a01b0382166200012d5760405162461bcd60e51b815260206004820152601f60248201527f45524332303a206d696e7420746f20746865207a65726f206164647265737300604482015260640160405180910390fd5b806002600082825462000141919062000454565b90915550506001600160a01b038216600081815260208181526040808320805486019055518481527fddf252ad1be2c89b69c2b068fc378daa952ba7f163c4a11628f55a4df523b3ef910160405180910390a35050565b505050565b634e487b7160e01b600052604160045260246000fd5b600181811c90821680620001c857607f821691505b602082108103620001e957634e487b7160e01b600052602260045260246000fd5b50919050565b601f8211156200019857600081815260208120601f850160051c81016020861015620002185750805b601f850160051c820191505b81811015620002395782815560010162000224565b505050505050565b81516001600160401b038111156200025d576200025d6200019d565b62000275816200026e8454620001b3565b84620001ef565b602080601f831160018114620002ad5760008415620002945750858301515b600019600386901b1c1916600185901b17855562000239565b600085815260208120601f198616915b82811015620002de57888601518255948401946001909101908401620002bd565b5085821015620002fd5787850151600019600388901b60f8161c191681555b5050505050600190811b01905550565b634e487b7160e01b600052601160045260246000fd5b600181815b80851115620003645781600019048211156200034857620003486200030d565b808516156200035657918102915b93841c939080029062000328565b509250929050565b6000826200037d575060016200041c565b816200038c575060006200041c565b8160018114620003a55760028114620003b057620003d0565b60019150506200041c565b60ff841115620003c457620003c46200030d565b50506001821b6200041c565b5060208310610133831016604e8410600b8410161715620003f5575081810a6200041c565b62000401838362000323565b80600019048211156200041857620004186200030d565b0290505b92915050565b60006200043360ff8416836200036c565b9392505050565b80820281158282048414176200041c576200041c6200030d565b808201808211156200041c576200041c6200030d565b610b7a806200047a6000396000f3fe608060405234801561001057600080fd5b506004361061010b5760003560e01c806363001884116100a2578063a457c2d711610071578063a457c2d71461022f578063a9059cbb14610242578063aa2fe91b14610255578063dd62ed3e14610278578063df925cd91461028b57600080fd5b806363001884146101c057806370a08231146101d35780638da5cb5b146101fc57806395d89b411461022757600080fd5b8063307c5f68116100de578063307c5f6814610176578063313ce5671461018b578063395093511461019a5780635f710f5c146101ad57600080fd5b806306fdde0314610110578063095ea7b31461012e57806318160ddd1461015157806323b872dd14610163575b600080fd5b61011861029e565b6040516101259190610982565b60405180910390f35b61014161013c3660046109ec565b610330565b6040519015158152602001610125565b6002545b604051908152602001610125565b610141610171366004610a16565b61034a565b610189610184366004610a52565b61036e565b005b60405160128152602001610125565b6101416101a83660046109ec565b6103db565b6101896101bb366004610a52565b6103fd565b6101896101ce3660046109ec565b61044b565b6101556101e1366004610a52565b6001600160a01b031660009081526020819052604090205490565b60065461020f906001600160a01b031681565b6040516001600160a01b039091168152602001610125565b6101186104be565b61014161023d3660046109ec565b6104cd565b6101416102503660046109ec565b610548565b610141610263366004610a52565b60076020526000908152604090205460ff1681565b610155610286366004610a74565b610556565b60055461020f906001600160a01b031681565b6060600380546102ad90610aa7565b80601f01602080910402602001604051908101604052809291908181526020018280546102d990610aa7565b80156103265780601f106102fb57610100808354040283529160200191610326565b820191906000526020600020905b81548152906001019060200180831161030957829003601f168201915b5050505050905090565b60003361033e818585610581565b60019150505b92915050565b6000336103588582856106a5565b61036385858561071f565b506001949350505050565b6006546001600160a01b031633146103a15760405162461bcd60e51b815260040161039890610ae1565b60405180910390fd5b600580546001600160a01b039092166001600160a01b0319909216821790556000908152600760205260409020805460ff19166001179055565b60003361033e8185856103ee8383610556565b6103f89190610b23565b610581565b6006546001600160a01b031633146104275760405162461bcd60e51b815260040161039890610ae1565b6001600160a01b03166000908152600760205260409020805460ff19166001179055565b3360009081526007602052604090205460ff168061047357506006546001600160a01b031633145b6104b05760405162461bcd60e51b815260206004820152600e60248201526d139bdd08185d5d1a1bdc9a5e995960921b6044820152606401610398565b6104ba82826108c3565b5050565b6060600480546102ad90610aa7565b600033816104db8286610556565b90508381101561053b5760405162461bcd60e51b815260206004820152602560248201527f45524332303a2064656372656173656420616c6c6f77616e63652062656c6f77604482015264207a65726f60d81b6064820152608401610398565b6103638286868403610581565b60003361033e81858561071f565b6001600160a01b03918216600090815260016020908152604080832093909416825291909152205490565b6001600160a01b0383166105e35760405162461bcd60e51b8152602060048201526024808201527f45524332303a20617070726f76652066726f6d20746865207a65726f206164646044820152637265737360e01b6064820152608401610398565b6001600160a01b0382166106445760405162461bcd60e51b815260206004820152602260248201527f45524332303a20617070726f766520746f20746865207a65726f206164647265604482015261737360f01b6064820152608401610398565b6001600160a01b0383811660008181526001602090815260408083209487168084529482529182902085905590518481527f8c5be1e5ebec7d5bd14f71427d1e84f3dd0314c0f7b2291e5b200ac8c7c3b925910160405180910390a3505050565b60006106b18484610556565b90506000198114610719578181101561070c5760405162461bcd60e51b815260206004820152601d60248201527f45524332303a20696e73756666696369656e7420616c6c6f77616e63650000006044820152606401610398565b6107198484848403610581565b50505050565b6001600160a01b0383166107835760405162461bcd60e51b815260206004820152602560248201527f45524332303a207472616e736665722066726f6d20746865207a65726f206164604482015264647265737360d81b6064820152608401610398565b6001600160a01b0382166107e55760405162461bcd60e51b815260206004820152602360248201527f45524332303a207472616e7366657220746f20746865207a65726f206164647260448201526265737360e81b6064820152608401610398565b6001600160a01b0383166000908152602081905260409020548181101561085d5760405162461bcd60e51b815260206004820152602660248201527f45524332303a207472616e7366657220616d6f756e7420657863656564732062604482015265616c616e636560d01b6064820152608401610398565b6001600160a01b03848116600081815260208181526040808320878703905593871680835291849020805487019055925185815290927fddf252ad1be2c89b69c2b068fc378daa952ba7f163c4a11628f55a4df523b3ef910160405180910390a3610719565b6001600160a01b0382166109195760405162461bcd60e51b815260206004820152601f60248201527f45524332303a206d696e7420746f20746865207a65726f2061646472657373006044820152606401610398565b806002600082825461092b9190610b23565b90915550506001600160a01b038216600081815260208181526040808320805486019055518481527fddf252ad1be2c89b69c2b068fc378daa952ba7f163c4a11628f55a4df523b3ef910160405180910390a35050565b600060208083528351808285015260005b818110156109af57858101830151858201604001528201610993565b506000604082860101526040601f19601f8301168501019250505092915050565b80356001600160a01b03811681146109e757600080fd5b919050565b600080604083850312156109ff57600080fd5b610a08836109d0565b946020939093013593505050565b600080600060608486031215610a2b57600080fd5b610a34846109d0565b9250610a42602085016109d0565b9150604084013590509250925092565b600060208284031215610a6457600080fd5b610a6d826109d0565b9392505050565b60008060408385031215610a8757600080fd5b610a90836109d0565b9150610a9e602084016109d0565b90509250929050565b600181811c90821680610abb57607f821691505b602082108103610adb57634e487b7160e01b600052602260045260246000fd5b50919050565b60208082526022908201527f4f6e6c79206f776e65722063616e20706572666f726d2074686973206163746960408201526137b760f11b606082015260800190565b8082018082111561034457634e487b7160e01b600052601160045260246000fdfea2646970667358221220b76dc177ffad63c123bb9ec8ecd0b43625740a6c8010bc32ced6d845fa41ae7c64736f6c63430008130033",
  "linkReferences": {},
  "deployedLinkReferences": {}
}