{
  "_format": "hh-sol-artifact-1",
  "contractName": "PharmaChain",
  "sourceName": "contracts/PharmaChain.sol",
  "abi": [
    {
      "inputs": [],
      "stateMutability": "nonpayable",
      "type": "constructor"
    },
    {
      "anonymous": false,
      "inputs": [
        {
          "indexed": false,
          "internalType": "string",
          "name": "batchId",
          "type": "string"
        }
      ],
      "name": "BatchExpired",
      "type": "event"
    },
    {
      "anonymous": false,
      "inputs": [
        {
          "indexed": false,
          "internalType": "string",
          "name": "batchId",
          "type": "string"
        },
        {
          "indexed": false,
          "internalType": "string",
          "name": "drugName",
          "type": "string"
        },
        {
          "indexed": false,
          "internalType": "address",
          "name": "holder",
          "type": "address"
        }
      ],
      "name": "BatchRegistered",
      "type": "event"
    },
    {
      "anonymous": false,
      "inputs": [
        {
          "indexed": false,
          "internalType": "string",
          "name": "batchId",
          "type": "string"
        },
        {
          "indexed": false,
          "internalType": "string",
          "name": "reason",
          "type": "string"
        }
      ],
      "name": "BatchSpoiled",
      "type": "event"
    },
    {
      "anonymous": false,
      "inputs": [
        {
          "indexed": false,
          "internalType": "string",
          "name": "batchId",
          "type": "string"
        },
        {
          "indexed": false,
          "internalType": "address",
          "name": "from",
          "type": "address"
        },
        {
          "indexed": false,
          "internalType": "address",
          "name": "to",
          "type": "address"
        }
      ],
      "name": "BatchTransferred",
      "type": "event"
    },
    {
      "anonymous": false,
      "inputs": [
        {
          "indexed": false,
          "internalType": "string",
          "name": "batchId",
          "type": "string"
        },
        {
          "indexed": false,
          "internalType": "string",
          "name": "newHash",
          "type": "string"
        }
      ],
      "name": "CertificateUpdated",
      "type": "event"
    },
    {
      "inputs": [
        {
          "internalType": "string",
          "name": "_batchId",
          "type": "string"
        }
      ],
      "name": "autoExpire",
      "outputs": [],
      "stateMutability": "nonpayable",
      "type": "function"
    },
    {
      "inputs": [
        {
          "internalType": "string",
          "name": "",
          "type": "string"
        }
      ],
      "name": "batchExists",
      "outputs": [
        {
          "internalType": "bool",
          "name": "",
          "type": "bool"
        }
      ],
      "stateMutability": "view",
      "type": "function"
    },
    {
      "inputs": [
        {
          "internalType": "string",
          "name": "",
          "type": "string"
        }
      ],
      "name": "batches",
      "outputs": [
        {
          "internalType": "string",
          "name": "batchId",
          "type": "string"
        },
        {
          "internalType": "string",
          "name": "drugName",
          "type": "string"
        },
        {
          "internalType": "string",
          "name": "manufacturer",
          "type": "string"
        },
        {
          "internalType": "string",
          "name": "origin",
          "type": "string"
        },
        {
          "internalType": "uint256",
          "name": "manufactureDate",
          "type": "uint256"
        },
        {
          "internalType": "uint256",
          "name": "expiryDate",
          "type": "uint256"
        },
        {
          "internalType": "bool",
          "name": "expired",
          "type": "bool"
        },
        {
          "internalType": "bool",
          "name": "spoiled",
          "type": "bool"
        },
        {
          "internalType": "string",
          "name": "spoilReason",
          "type": "string"
        },
        {
          "internalType": "string",
          "name": "certificateHash",
          "type": "string"
        },
        {
          "internalType": "address",
          "name": "currentHolder",
          "type": "address"
        }
      ],
      "stateMutability": "view",
      "type": "function"
    },
    {
      "inputs": [
        {
          "internalType": "string",
          "name": "_batchId",
          "type": "string"
        }
      ],
      "name": "checkBatchValidity",
      "outputs": [
        {
          "internalType": "bool",
          "name": "",
          "type": "bool"
        }
      ],
      "stateMutability": "view",
      "type": "function"
    },
    {
      "inputs": [
        {
          "internalType": "string",
          "name": "_batchId",
          "type": "string"
        }
      ],
      "name": "getBatchDetails",
      "outputs": [
        {
          "internalType": "string",
          "name": "",
          "type": "string"
        },
        {
          "internalType": "string",
          "name": "",
          "type": "string"
        },
        {
          "internalType": "string",
          "name": "",
          "type": "string"
        },
        {
          "internalType": "string",
          "name": "",
          "type": "string"
        },
        {
          "internalType": "uint256",
          "name": "",
          "type": "uint256"
        },
        {
          "internalType": "uint256",
          "name": "",
          "type": "uint256"
        },
        {
          "internalType": "bool",
          "name": "",
          "type": "bool"
        },
        {
          "internalType": "bool",
          "name": "",
          "type": "bool"
        },
        {
          "internalType": "string",
          "name": "",
          "type": "string"
        },
        {
          "internalType": "string",
          "name": "",
          "type": "string"
        },
        {
          "internalType": "address",
          "name": "",
          "type": "address"
        }
      ],
      "stateMutability": "view",
      "type": "function"
    },
    {
      "inputs": [
        {
          "internalType": "string",
          "name": "_batchId",
          "type": "string"
        },
        {
          "internalType": "string",
          "name": "_reason",
          "type": "string"
        }
      ],
      "name": "markAsSpoiled",
      "outputs": [],
      "stateMutability": "nonpayable",
      "type": "function"
    },
    {
      "inputs": [],
      "name": "owner",
      "outputs": [
        {
          "internalType": "address",
          "name": "",
          "type": "address"
        }
      ],
      "stateMutability": "view",
      "type": "function"
    },
    {
      "inputs": [
        {
          "internalType": "string",
          "name": "_batchId",
          "type": "string"
        },
        {
          "internalType": "string",
          "name": "_drugName",
          "type": "string"
        },
        {
          "internalType": "string",
          "name": "_manufacturer",
          "type": "string"
        },
        {
          "internalType": "string",
          "name": "_origin",
          "type": "string"
        },
        {
          "internalType": "uint256",
          "name": "_manufactureDate",
          "type": "uint256"
        },
        {
          "internalType": "uint256",
          "name": "_expiryDate",
          "type": "uint256"
        },
        {
          "internalType": "string",
          "name": "_certificateHash",
          "type": "string"
        }
      ],
      "name": "registerBatch",
      "outputs": [],
      "stateMutability": "nonpayable",
      "type": "function"
    },
    {
      "inputs": [
        {
          "internalType": "string",
          "name": "_batchId",
          "type": "string"
        },
        {
          "internalType": "address",
          "name": "_to",
          "type": "address"
        }
      ],
      "name": "transferBatch",
      "outputs": [],
      "stateMutability": "nonpayable",
      "type": "function"
    },
    {
      "inputs": [
        {
          "internalType": "string",
          "name": "_batchId",
          "type": "string"
        },
        {
          "internalType": "string",
          "name": "_newHash",
          "type": "string"
        }
      ],
      "name": "updateCertificateHash",
      "outputs": [],
      "stateMutability": "nonpayable",
      "type": "function"
    }
  ],
  "bytecode": "0x608060405234801561001057600080fd5b50600280546001600160a01b03191633179055611cca806100326000396000f3fe608060405234801561001057600080fd5b506004361061009e5760003560e01c80639b7993f2116100665780639b7993f21461013c578063b401563b1461014f578063e790398814610162578063f64cc02b146101a0578063f986f931146101b357600080fd5b806314c30a57146100a35780637ef1446a146100b8578063813f14b3146100eb5780638da5cb5b146100fe5780639a1e51ca14610129575b600080fd5b6100b66100b1366004611755565b6101c6565b005b6100cb6100c636600461183a565b610463565b6040516100e29b9a999897969594939291906118c7565b60405180910390f35b6100b66100f936600461198c565b610803565b600254610111906001600160a01b031681565b6040516001600160a01b0390911681526020016100e2565b6100cb61013736600461183a565b61097e565b6100b661014a36600461183a565b610e2f565b6100b661015d3660046119f0565b610f77565b61019061017036600461183a565b805160208183018101805160018252928201919093012091525460ff1681565b60405190151581526020016100e2565b6101906101ae36600461183a565b61114b565b6100b66101c136600461198c565b6115a0565b6001876040516101d69190611a4e565b9081526040519081900360200190205460ff16156102325760405162461bcd60e51b8152602060048201526014602482015273426174636820616c72656164792065786973747360601b60448201526064015b60405180910390fd5b4282116102815760405162461bcd60e51b815260206004820152601d60248201527f4578706972792064617465206d75737420626520696e206675747572650000006044820152606401610229565b604051806101600160405280888152602001878152602001868152602001858152602001848152602001838152602001600015158152602001600015158152602001604051806020016040528060008152508152602001828152602001336001600160a01b03168152506000886040516102fb9190611a4e565b908152604051908190036020019020815181906103189082611aed565b506020820151600182019061032d9082611aed565b50604082015160028201906103429082611aed565b50606082015160038201906103579082611aed565b506080820151600482015560a0820151600582015560c082015160068201805460e085015161ffff1990911692151561ff00191692909217610100921515830217905582015160078201906103ac9082611aed565b5061012082015160088201906103c29082611aed565b506101409190910151600990910180546001600160a01b0319166001600160a01b039092169190911790556040516001908190610400908a90611a4e565b908152604051908190036020018120805492151560ff19909316929092179091557fe187ef62f610f162883fdada619504c09c0981be2dc09fbc1029e7a09db45a939061045290899089903390611bad565b60405180910390a150505050505050565b805160208183018101805160008252928201919093012091528054819061048990611a6a565b80601f01602080910402602001604051908101604052809291908181526020018280546104b590611a6a565b80156105025780601f106104d757610100808354040283529160200191610502565b820191906000526020600020905b8154815290600101906020018083116104e557829003601f168201915b50505050509080600101805461051790611a6a565b80601f016020809104026020016040519081016040528092919081815260200182805461054390611a6a565b80156105905780601f1061056557610100808354040283529160200191610590565b820191906000526020600020905b81548152906001019060200180831161057357829003601f168201915b5050505050908060020180546105a590611a6a565b80601f01602080910402602001604051908101604052809291908181526020018280546105d190611a6a565b801561061e5780601f106105f35761010080835404028352916020019161061e565b820191906000526020600020905b81548152906001019060200180831161060157829003601f168201915b50505050509080600301805461063390611a6a565b80601f016020809104026020016040519081016040528092919081815260200182805461065f90611a6a565b80156106ac5780601f10610681576101008083540402835291602001916106ac565b820191906000526020600020905b81548152906001019060200180831161068f57829003601f168201915b505050506004830154600584015460068501546007860180549596939592945060ff8083169461010090930416926106e390611a6a565b80601f016020809104026020016040519081016040528092919081815260200182805461070f90611a6a565b801561075c5780601f106107315761010080835404028352916020019161075c565b820191906000526020600020905b81548152906001019060200180831161073f57829003601f168201915b50505050509080600801805461077190611a6a565b80601f016020809104026020016040519081016040528092919081815260200182805461079d90611a6a565b80156107ea5780601f106107bf576101008083540402835291602001916107ea565b820191906000526020600020905b8154815290600101906020018083116107cd57829003601f168201915b505050600990930154919250506001600160a01b03168b565b816001816040516108149190611a4e565b9081526040519081900360200190205460ff166108435760405162461bcd60e51b815260040161022990611beb565b600080846040516108549190611a4e565b90815260405190819003602001902060098101549091506001600160a01b031633146108d25760405162461bcd60e51b815260206004820152602760248201527f4f6e6c792063757272656e7420686f6c6465722063616e206d61726b206173206044820152661cdc1bda5b195960ca1b6064820152608401610229565b600681015460ff161561091f5760405162461bcd60e51b815260206004820152601560248201527410985d18da08185b1c9958591e48195e1c1a5c9959605a1b6044820152606401610229565b60068101805461ff0019166101001790556007810161093e8482611aed565b507f4f0ffb2bad101d73ddbc205250a0441340c9e2a5fffd39a01031a99851308c4a8484604051610970929190611c19565b60405180910390a150505050565b60608060608060008060008060608060008b6001816040516109a09190611a4e565b9081526040519081900360200190205460ff166109cf5760405162461bcd60e51b815260040161022990611beb565b6000808e6040516109e09190611a4e565b908152602001604051809103902060405180610160016040529081600082018054610a0a90611a6a565b80601f0160208091040260200160405190810160405280929190818152602001828054610a3690611a6a565b8015610a835780601f10610a5857610100808354040283529160200191610a83565b820191906000526020600020905b815481529060010190602001808311610a6657829003601f168201915b50505050508152602001600182018054610a9c90611a6a565b80601f0160208091040260200160405190810160405280929190818152602001828054610ac890611a6a565b8015610b155780601f10610aea57610100808354040283529160200191610b15565b820191906000526020600020905b815481529060010190602001808311610af857829003601f168201915b50505050508152602001600282018054610b2e90611a6a565b80601f0160208091040260200160405190810160405280929190818152602001828054610b5a90611a6a565b8015610ba75780601f10610b7c57610100808354040283529160200191610ba7565b820191906000526020600020905b815481529060010190602001808311610b8a57829003601f168201915b50505050508152602001600382018054610bc090611a6a565b80601f0160208091040260200160405190810160405280929190818152602001828054610bec90611a6a565b8015610c395780601f10610c0e57610100808354040283529160200191610c39565b820191906000526020600020905b815481529060010190602001808311610c1c57829003601f168201915b50505091835250506004820154602082015260058201546040820152600682015460ff80821615156060840152610100909104161515608082015260078201805460a090920191610c8990611a6a565b80601f0160208091040260200160405190810160405280929190818152602001828054610cb590611a6a565b8015610d025780601f10610cd757610100808354040283529160200191610d02565b820191906000526020600020905b815481529060010190602001808311610ce557829003601f168201915b50505050508152602001600882018054610d1b90611a6a565b80601f0160208091040260200160405190810160405280929190818152602001828054610d4790611a6a565b8015610d945780601f10610d6957610100808354040283529160200191610d94565b820191906000526020600020905b815481529060010190602001808311610d7757829003601f168201915b505050505081526020016009820160009054906101000a90046001600160a01b03166001600160a01b03166001600160a01b0316815250509050806000015181602001518260400151836060015184608001518560a001518660c001518760e001518861010001518961012001518a61014001519c509c509c509c509c509c509c509c509c509c509c50505091939597999b90929496989a50565b80600181604051610e409190611a4e565b9081526040519081900360200190205460ff16610e6f5760405162461bcd60e51b815260040161022990611beb565b60008083604051610e809190611a4e565b908152604051908190036020019020600681015490915060ff1615610edf5760405162461bcd60e51b815260206004820152601560248201527410985d18da08185b1c9958591e48195e1c1a5c9959605a1b6044820152606401610229565b8060050154421015610f2b5760405162461bcd60e51b815260206004820152601560248201527410985d18da081b9bdd081e595d08195e1c1a5c9959605a1b6044820152606401610229565b60068101805460ff191660011790556040517f4d162764164a3ad7275221da892fcbdec29cfe24c39f4e03b62771a84aae581e90610f6a908590611c47565b60405180910390a1505050565b81600181604051610f889190611a4e565b9081526040519081900360200190205460ff16610fb75760405162461bcd60e51b815260040161022990611beb565b60008084604051610fc89190611a4e565b90815260405190819003602001902060098101549091506001600160a01b031633146110365760405162461bcd60e51b815260206004820181905260248201527f4f6e6c792063757272656e7420686f6c6465722063616e207472616e736665726044820152606401610229565b600681015460ff161561108b5760405162461bcd60e51b815260206004820152601d60248201527f43616e6e6f74207472616e7366657220657870697265642062617463680000006044820152606401610229565b6006810154610100900460ff16156110e55760405162461bcd60e51b815260206004820152601d60248201527f43616e6e6f74207472616e736665722073706f696c65642062617463680000006044820152606401610229565b6009810180546001600160a01b038581166001600160a01b03198316179092556040519116907fa8b047db3c9b378a978a9cc59c0f75a2671f935a140d6799f8f56104f0ec6dd69061113c90879084908890611c61565b60405180910390a15050505050565b60008160018160405161115e9190611a4e565b9081526040519081900360200190205460ff1661118d5760405162461bcd60e51b815260040161022990611beb565b6000808460405161119e9190611a4e565b9081526020016040518091039020604051806101600160405290816000820180546111c890611a6a565b80601f01602080910402602001604051908101604052809291908181526020018280546111f490611a6a565b80156112415780601f1061121657610100808354040283529160200191611241565b820191906000526020600020905b81548152906001019060200180831161122457829003601f168201915b5050505050815260200160018201805461125a90611a6a565b80601f016020809104026020016040519081016040528092919081815260200182805461128690611a6a565b80156112d35780601f106112a8576101008083540402835291602001916112d3565b820191906000526020600020905b8154815290600101906020018083116112b657829003601f168201915b505050505081526020016002820180546112ec90611a6a565b80601f016020809104026020016040519081016040528092919081815260200182805461131890611a6a565b80156113655780601f1061133a57610100808354040283529160200191611365565b820191906000526020600020905b81548152906001019060200180831161134857829003601f168201915b5050505050815260200160038201805461137e90611a6a565b80601f01602080910402602001604051908101604052809291908181526020018280546113aa90611a6a565b80156113f75780601f106113cc576101008083540402835291602001916113f7565b820191906000526020600020905b8154815290600101906020018083116113da57829003601f168201915b50505091835250506004820154602082015260058201546040820152600682015460ff80821615156060840152610100909104161515608082015260078201805460a09092019161144790611a6a565b80601f016020809104026020016040519081016040528092919081815260200182805461147390611a6a565b80156114c05780601f10611495576101008083540402835291602001916114c0565b820191906000526020600020905b8154815290600101906020018083116114a357829003601f168201915b505050505081526020016008820180546114d990611a6a565b80601f016020809104026020016040519081016040528092919081815260200182805461150590611a6a565b80156115525780601f1061152757610100808354040283529160200191611552565b820191906000526020600020905b81548152906001019060200180831161153557829003601f168201915b5050509183525050600991909101546001600160a01b031660209091015260c081015190915015801561158757508060e00151155b801561159657508060a0015142105b9250505b50919050565b816001816040516115b19190611a4e565b9081526040519081900360200190205460ff166115e05760405162461bcd60e51b815260040161022990611beb565b600080846040516115f19190611a4e565b90815260405190819003602001902060098101549091506001600160a01b031633146116725760405162461bcd60e51b815260206004820152602a60248201527f4f6e6c792063757272656e7420686f6c6465722063616e2075706461746520636044820152696572746966696361746560b01b6064820152608401610229565b600881016116808482611aed565b507f29649c862eeebc82c2468fad07dfafca561ae42a8130ca7f8b9dd32e668a63478484604051610970929190611c19565b634e487b7160e01b600052604160045260246000fd5b600082601f8301126116d957600080fd5b813567ffffffffffffffff808211156116f4576116f46116b2565b604051601f8301601f19908116603f0116810190828211818310171561171c5761171c6116b2565b8160405283815286602085880101111561173557600080fd5b836020870160208301376000602085830101528094505050505092915050565b600080600080600080600060e0888a03121561177057600080fd5b873567ffffffffffffffff8082111561178857600080fd5b6117948b838c016116c8565b985060208a01359150808211156117aa57600080fd5b6117b68b838c016116c8565b975060408a01359150808211156117cc57600080fd5b6117d88b838c016116c8565b965060608a01359150808211156117ee57600080fd5b6117fa8b838c016116c8565b955060808a0135945060a08a0135935060c08a013591508082111561181e57600080fd5b5061182b8a828b016116c8565b91505092959891949750929550565b60006020828403121561184c57600080fd5b813567ffffffffffffffff81111561186357600080fd5b61186f848285016116c8565b949350505050565b60005b8381101561189257818101518382015260200161187a565b50506000910152565b600081518084526118b3816020860160208601611877565b601f01601f19169290920160200192915050565b60006101608083526118db8184018f61189b565b905082810360208401526118ef818e61189b565b90508281036040840152611903818d61189b565b90508281036060840152611917818c61189b565b90508960808401528860a084015287151560c084015261193b60e084018815159052565b82810361010084015261194e818761189b565b9050828103610120840152611963818661189b565b91505061197c6101408301846001600160a01b03169052565b9c9b505050505050505050505050565b6000806040838503121561199f57600080fd5b823567ffffffffffffffff808211156119b757600080fd5b6119c3868387016116c8565b935060208501359150808211156119d957600080fd5b506119e6858286016116c8565b9150509250929050565b60008060408385031215611a0357600080fd5b823567ffffffffffffffff811115611a1a57600080fd5b611a26858286016116c8565b92505060208301356001600160a01b0381168114611a4357600080fd5b809150509250929050565b60008251611a60818460208701611877565b9190910192915050565b600181811c90821680611a7e57607f821691505b60208210810361159a57634e487b7160e01b600052602260045260246000fd5b601f821115611ae857600081815260208120601f850160051c81016020861015611ac55750805b601f850160051c820191505b81811015611ae457828155600101611ad1565b5050505b505050565b815167ffffffffffffffff811115611b0757611b076116b2565b611b1b81611b158454611a6a565b84611a9e565b602080601f831160018114611b505760008415611b385750858301515b600019600386901b1c1916600185901b178555611ae4565b600085815260208120601f198616915b82811015611b7f57888601518255948401946001909101908401611b60565b5085821015611b9d5787850151600019600388901b60f8161c191681555b5050505050600190811b01905550565b606081526000611bc0606083018661189b565b8281036020840152611bd2818661189b565b91505060018060a01b0383166040830152949350505050565b60208082526014908201527310985d18da08191bd95cc81b9bdd08195e1a5cdd60621b604082015260600190565b604081526000611c2c604083018561189b565b8281036020840152611c3e818561189b565b95945050505050565b602081526000611c5a602083018461189b565b9392505050565b606081526000611c74606083018661189b565b6001600160a01b039485166020840152929093166040909101529291505056fea2646970667358221220da89d736573eff9a5deaea1a5ac59c17742a1b22b63a2888e2b6291bdc6649cd64736f6c63430008130033",
  "linkReferences": {},
  "deployedLinkReferences": {}
}